{
  "abi": [
    {
      "inputs": [
        {
          "internalType": "address",
          "name": "yearnRegistry",
          "type": "address"
        }
      ],
      "stateMutability": "nonpayable",
      "type": "constructor"
    },
    {
      "anonymous": false,
      "inputs": [
        {
          "indexed": true,
          "internalType": "address",
          "name": "previousOwner",
          "type": "address"
        },
        {
          "indexed": true,
          "internalType": "address",
          "name": "newOwner",
          "type": "address"
        }
      ],
      "name": "OwnershipTransferred",
      "type": "event"
    },
    {
      "inputs": [
        {
          "internalType": "address",
          "name": "token",
          "type": "address"
        },
        {
          "internalType": "address",
          "name": "recipient",
          "type": "address"
        },
        {
          "internalType": "uint256",
          "name": "amount",
          "type": "uint256"
        },
        {
          "internalType": "uint256",
          "name": "vaultId",
          "type": "uint256"
        }
      ],
      "name": "deposit",
      "outputs": [
        {
          "internalType": "uint256",
          "name": "",
          "type": "uint256"
        }
      ],
      "stateMutability": "nonpayable",
      "type": "function"
    },
    {
      "inputs": [
        {
          "internalType": "address",
          "name": "token",
          "type": "address"
        },
        {
          "internalType": "address",
          "name": "recipient",
          "type": "address"
        },
        {
          "internalType": "uint256",
          "name": "amount",
          "type": "uint256"
        }
      ],
      "name": "deposit",
      "outputs": [
        {
          "internalType": "uint256",
          "name": "",
          "type": "uint256"
        }
      ],
      "stateMutability": "nonpayable",
      "type": "function"
    },
    {
      "inputs": [
        {
          "internalType": "address",
          "name": "token",
          "type": "address"
        }
      ],
      "name": "latestVault",
      "outputs": [
        {
          "internalType": "contract VaultAPI",
          "name": "",
          "type": "address"
        }
      ],
      "stateMutability": "view",
      "type": "function"
    },
    {
      "inputs": [
        {
          "internalType": "address",
          "name": "token",
          "type": "address"
        },
        {
          "internalType": "uint256",
          "name": "amount",
          "type": "uint256"
        }
      ],
      "name": "migrate",
      "outputs": [
        {
          "internalType": "uint256",
          "name": "",
          "type": "uint256"
        }
      ],
      "stateMutability": "nonpayable",
      "type": "function"
    },
    {
      "inputs": [
        {
          "internalType": "address",
          "name": "token",
          "type": "address"
        }
      ],
      "name": "migrate",
      "outputs": [
        {
          "internalType": "uint256",
          "name": "",
          "type": "uint256"
        }
      ],
      "stateMutability": "nonpayable",
      "type": "function"
    },
    {
      "inputs": [
        {
          "internalType": "address",
          "name": "token",
          "type": "address"
        },
        {
          "internalType": "uint256",
          "name": "amount",
          "type": "uint256"
        },
        {
          "internalType": "uint256",
          "name": "firstVaultId",
          "type": "uint256"
        },
        {
          "internalType": "uint256",
          "name": "lastVaultId",
          "type": "uint256"
        }
      ],
      "name": "migrate",
      "outputs": [
        {
          "internalType": "uint256",
          "name": "",
          "type": "uint256"
        }
      ],
      "stateMutability": "nonpayable",
      "type": "function"
    },
    {
      "inputs": [
        {
          "internalType": "address",
          "name": "token",
          "type": "address"
        }
      ],
      "name": "numVaults",
      "outputs": [
        {
          "internalType": "uint256",
          "name": "",
          "type": "uint256"
        }
      ],
      "stateMutability": "view",
      "type": "function"
    },
    {
      "inputs": [],
      "name": "owner",
      "outputs": [
        {
          "internalType": "address",
          "name": "",
          "type": "address"
        }
      ],
      "stateMutability": "view",
      "type": "function"
    },
    {
      "inputs": [],
      "name": "registry",
      "outputs": [
        {
          "internalType": "contract RegistryAPI",
          "name": "",
          "type": "address"
        }
      ],
      "stateMutability": "view",
      "type": "function"
    },
    {
      "inputs": [],
      "name": "renounceOwnership",
      "outputs": [],
      "stateMutability": "nonpayable",
      "type": "function"
    },
    {
      "inputs": [
        {
          "internalType": "address",
          "name": "yearnRegistry",
          "type": "address"
        }
      ],
      "name": "setRegistry",
      "outputs": [],
      "stateMutability": "nonpayable",
      "type": "function"
    },
    {
      "inputs": [
        {
          "internalType": "address",
          "name": "token",
          "type": "address"
        },
        {
          "internalType": "uint256",
          "name": "firstVaultId",
          "type": "uint256"
        },
        {
          "internalType": "uint256",
          "name": "lastVaultId",
          "type": "uint256"
        }
      ],
      "name": "totalAssets",
      "outputs": [
        {
          "internalType": "uint256",
          "name": "assets",
          "type": "uint256"
        }
      ],
      "stateMutability": "view",
      "type": "function"
    },
    {
      "inputs": [
        {
          "internalType": "address",
          "name": "token",
          "type": "address"
        }
      ],
      "name": "totalAssets",
      "outputs": [
        {
          "internalType": "uint256",
          "name": "",
          "type": "uint256"
        }
      ],
      "stateMutability": "view",
      "type": "function"
    },
    {
      "inputs": [
        {
          "internalType": "address",
          "name": "token",
          "type": "address"
        },
        {
          "internalType": "address",
          "name": "account",
          "type": "address"
        }
      ],
      "name": "totalVaultBalance",
      "outputs": [
        {
          "internalType": "uint256",
          "name": "",
          "type": "uint256"
        }
      ],
      "stateMutability": "view",
      "type": "function"
    },
    {
      "inputs": [
        {
          "internalType": "address",
          "name": "token",
          "type": "address"
        },
        {
          "internalType": "address",
          "name": "account",
          "type": "address"
        },
        {
          "internalType": "uint256",
          "name": "firstVaultId",
          "type": "uint256"
        },
        {
          "internalType": "uint256",
          "name": "lastVaultId",
          "type": "uint256"
        }
      ],
      "name": "totalVaultBalance",
      "outputs": [
        {
          "internalType": "uint256",
          "name": "balance",
          "type": "uint256"
        }
      ],
      "stateMutability": "view",
      "type": "function"
    },
    {
      "inputs": [
        {
          "internalType": "address",
          "name": "newOwner",
          "type": "address"
        }
      ],
      "name": "transferOwnership",
      "outputs": [],
      "stateMutability": "nonpayable",
      "type": "function"
    },
    {
      "inputs": [
        {
          "internalType": "address",
          "name": "token",
          "type": "address"
        },
        {
          "internalType": "uint256",
          "name": "deploymentId",
          "type": "uint256"
        }
      ],
      "name": "vaults",
      "outputs": [
        {
          "internalType": "contract VaultAPI",
          "name": "",
          "type": "address"
        }
      ],
      "stateMutability": "view",
      "type": "function"
    },
    {
      "inputs": [
        {
          "internalType": "address",
          "name": "token",
          "type": "address"
        },
        {
          "internalType": "address",
          "name": "recipient",
          "type": "address"
        },
        {
          "internalType": "uint256",
          "name": "amount",
          "type": "uint256"
        },
        {
          "internalType": "uint256",
          "name": "firstVaultId",
          "type": "uint256"
        },
        {
          "internalType": "uint256",
          "name": "lastVaultId",
          "type": "uint256"
        }
      ],
      "name": "withdraw",
      "outputs": [
        {
          "internalType": "uint256",
          "name": "",
          "type": "uint256"
        }
      ],
      "stateMutability": "nonpayable",
      "type": "function"
    },
    {
      "inputs": [
        {
          "internalType": "address",
          "name": "token",
          "type": "address"
        },
        {
          "internalType": "address",
          "name": "recipient",
          "type": "address"
        },
        {
          "internalType": "uint256",
          "name": "amount",
          "type": "uint256"
        }
      ],
      "name": "withdraw",
      "outputs": [
        {
          "internalType": "uint256",
          "name": "",
          "type": "uint256"
        }
      ],
      "stateMutability": "nonpayable",
      "type": "function"
    },
    {
      "inputs": [
        {
          "internalType": "address",
          "name": "token",
          "type": "address"
        },
        {
          "internalType": "address",
          "name": "recipient",
          "type": "address"
        }
      ],
      "name": "withdraw",
      "outputs": [
        {
          "internalType": "uint256",
          "name": "",
          "type": "uint256"
        }
      ],
      "stateMutability": "nonpayable",
      "type": "function"
    }
  ],
  "bytecode": "60806040523480156200001157600080fd5b506040516200230b3803806200230b8339810160408190526200003491620000b5565b6200003f3362000065565b600180546001600160a01b0319166001600160a01b0392909216919091179055620000e7565b600080546001600160a01b038381166001600160a01b0319831681178455604051919092169283917f8be0079c531659141344cd1fd0a4f28419497f9722a3daafe3b4186f6b6457e09190a35050565b600060208284031215620000c857600080fd5b81516001600160a01b0381168114620000e057600080fd5b9392505050565b61221480620000f76000396000f3fe608060405234801561001057600080fd5b506004361061012c5760003560e01c8063ad68ebf7116100ad578063ee42427811610071578063ee4242781461026e578063f2fde38b14610281578063f3e0ffbf14610294578063f940e385146102a7578063f9c7bba5146102ba57600080fd5b8063ad68ebf71461020f578063ce5494bb14610222578063d9caed1214610235578063e0cec5fb14610248578063e177dc701461025b57600080fd5b80637bbfc69e116100f45780637bbfc69e146101b25780638340f549146101c55780638da5cb5b146101d8578063900ab8b5146101e9578063a91ee0dc146101fc57600080fd5b806320e8c56514610131578063212a8c9514610157578063715018a61461016a57806376234759146101745780637b10399914610187575b600080fd5b61014461013f366004611d7b565b6102cd565b6040519081526020015b60405180910390f35b610144610165366004611dc1565b6102e5565b610172610370565b005b610144610182366004611dfa565b6103af565b60015461019a906001600160a01b031681565b6040516001600160a01b03909116815260200161014e565b61019a6101c0366004611e4b565b6103c9565b6101446101d3366004611e77565b61043f565b6000546001600160a01b031661019a565b6101446101f7366004611d7b565b61045a565b61017261020a366004611eb8565b6106ed565b61014461021d366004611e4b565b61085e565b610144610230366004611eb8565b610870565b610144610243366004611e77565b610884565b610144610256366004611ed5565b610897565b61019a610269366004611eb8565b610a39565b61014461027c366004611f0a565b610aa8565b61017261028f366004611eb8565b610ab7565b6101446102a2366004611eb8565b610b52565b6101446102b5366004611dc1565b610bcd565b6101446102c8366004611eb8565b610be2565b60006102dc8533868686610c15565b95945050505050565b60405163900ab8b560e01b81526001600160a01b03808416600483015282166024820152600060448201819052600019606483015290309063900ab8b590608401602060405180830381865afa158015610343573d6000803e3d6000fd5b505050506040513d601f19601f820116820180604052508101906103679190611f45565b90505b92915050565b6000546001600160a01b031633146103a35760405162461bcd60e51b815260040161039a90611f5e565b60405180910390fd5b6103ad600061102b565b565b60006103bf86338787878761107b565b9695505050505050565b600154604051633ddfe34f60e11b81526001600160a01b038481166004830152602482018490526000921690637bbfc69e90604401602060405180830381865afa15801561041b573d6000803e3d6000fd5b505050506040513d601f19601f820116820180604052508101906103679190611f93565b600061045084338585600019610c15565b90505b9392505050565b60008183111561046957600080fd5b816000198114156104f0576001805460405163f9c7bba560e01b81526001600160a01b0389811660048301529091169063f9c7bba590602401602060405180830381865afa1580156104bf573d6000803e3d6000fd5b505050506040513d601f19601f820116820180604052508101906104e39190611f45565b6104ed9190611fc6565b90505b835b8181116106e357600154604051633ddfe34f60e11b81526001600160a01b038981166004830152602482018490526000921690637bbfc69e90604401602060405180830381865afa15801561054b573d6000803e3d6000fd5b505050506040513d601f19601f8201168201806040525081019061056f9190611f93565b90506000816001600160a01b031663313ce5676040518163ffffffff1660e01b8152600401602060405180830381865afa1580156105b1573d6000803e3d6000fd5b505050506040513d601f19601f820116820180604052508101906105d59190611f45565b6105e090600a6120c1565b826001600160a01b03166399530b066040518163ffffffff1660e01b8152600401602060405180830381865afa15801561061e573d6000803e3d6000fd5b505050506040513d601f19601f820116820180604052508101906106429190611f45565b6040516370a0823160e01b81526001600160a01b038b811660048301528516906370a0823190602401602060405180830381865afa158015610688573d6000803e3d6000fd5b505050506040513d601f19601f820116820180604052508101906106ac9190611f45565b6106b691906120cd565b6106c091906120ec565b90506106cc818661210e565b9450505080806106db90612126565b9150506104f2565b5050949350505050565b6000546001600160a01b031633146107175760405162461bcd60e51b815260040161039a90611f5e565b60015460408051635aa6e67560e01b815290516000926001600160a01b031691635aa6e6759160048083019260209291908290030181865afa158015610761573d6000803e3d6000fd5b505050506040513d601f19601f820116820180604052508101906107859190611f93565b600180546001600160a01b0319166001600160a01b03851690811790915560408051635aa6e67560e01b815290519293509091635aa6e675916004808201926020929091908290030181865afa1580156107e3573d6000803e3d6000fd5b505050506040513d601f19601f820116820180604052508101906108079190611f93565b6001600160a01b0316816001600160a01b03161461085a5760405162461bcd60e51b815260206004820152601060248201526f696e76616c696420726567697374727960801b604482015260640161039a565b5050565b60006103678333846000600019611597565b600061036a82336000196000600019611597565b600061045084338585600060001961107b565b6000818311156108a657600080fd5b8160001981141561092d576001805460405163f9c7bba560e01b81526001600160a01b0388811660048301529091169063f9c7bba590602401602060405180830381865afa1580156108fc573d6000803e3d6000fd5b505050506040513d601f19601f820116820180604052508101906109209190611f45565b61092a9190611fc6565b90505b835b818111610a3057600154604051633ddfe34f60e11b81526001600160a01b038881166004830152602482018490526000921690637bbfc69e90604401602060405180830381865afa158015610988573d6000803e3d6000fd5b505050506040513d601f19601f820116820180604052508101906109ac9190611f93565b9050806001600160a01b03166301e1d1146040518163ffffffff1660e01b8152600401602060405180830381865afa1580156109ec573d6000803e3d6000fd5b505050506040513d601f19601f82011682018060405250810190610a109190611f45565b610a1a908561210e565b9350508080610a2890612126565b91505061092f565b50509392505050565b600154604051630e177dc760e41b81526001600160a01b038381166004830152600092169063e177dc7090602401602060405180830381865afa158015610a84573d6000803e3d6000fd5b505050506040513d601f19601f8201168201806040525081019061036a9190611f93565b60006102dc8533868686611597565b6000546001600160a01b03163314610ae15760405162461bcd60e51b815260040161039a90611f5e565b6001600160a01b038116610b465760405162461bcd60e51b815260206004820152602660248201527f4f776e61626c653a206e6577206f776e657220697320746865207a65726f206160448201526564647265737360d01b606482015260840161039a565b610b4f8161102b565b50565b60405163e0cec5fb60e01b81526001600160a01b0382166004820152600060248201819052600019604483015290309063e0cec5fb906064015b602060405180830381865afa158015610ba9573d6000803e3d6000fd5b505050506040513d601f19601f8201168201806040525081019061036a9190611f45565b6000610367833384600019600060001961107b565b60015460405163f9c7bba560e01b81526001600160a01b038381166004830152600092169063f9c7bba590602401610b8c565b60006001600160a01b03851630141581600019841415610ca457600154604051630e177dc760e41b81526001600160a01b038a811660048301529091169063e177dc7090602401602060405180830381865afa158015610c79573d6000803e3d6000fd5b505050506040513d601f19601f82011682018060405250810190610c9d9190611f93565b9050610d1c565b600154604051633ddfe34f60e11b81526001600160a01b038a811660048301526024820187905290911690637bbfc69e90604401602060405180830381865afa158015610cf5573d6000803e3d6000fd5b505050506040513d601f19601f82011682018060405250810190610d199190611f93565b90505b604051636eb1769f60e11b81523060048201526001600160a01b0382811660248301528691908a169063dd62ed3e90604401602060405180830381865afa158015610d6b573d6000803e3d6000fd5b505050506040513d601f19601f82011682018060405250810190610d8f9190611f45565b1015610dae57610da1888260006119b8565b610dae88826000196119b8565b600019851415610e25576040516370a0823160e01b81526001600160a01b0388811660048301528916906370a0823190602401602060405180830381865afa158015610dfe573d6000803e3d6000fd5b505050506040513d601f19601f82011682018060405250810190610e229190611f45565b94505b8115610faa576040516370a0823160e01b81523060048201526000906001600160a01b038a16906370a0823190602401602060405180830381865afa158015610e72573d6000803e3d6000fd5b505050506040513d601f19601f82011682018060405250810190610e969190611f45565b9050610ea489893089611b05565b604051636e553f6560e01b8152600481018790526001600160a01b038881166024830152831690636e553f65906044016020604051808303816000875af1158015610ef3573d6000803e3d6000fd5b505050506040513d601f19601f82011682018060405250810190610f179190611f45565b6040516370a0823160e01b81523060048201529094506000906001600160a01b038b16906370a0823190602401602060405180830381865afa158015610f61573d6000803e3d6000fd5b505050506040513d601f19601f82011682018060405250810190610f859190611f45565b905081811115610fa357610fa38a8a610f9e8585611fc6565b611b43565b5050611020565b604051636e553f6560e01b8152600481018690526001600160a01b038781166024830152821690636e553f65906044016020604051808303816000875af1158015610ff9573d6000803e3d6000fd5b505050506040513d601f19601f8201168201806040525081019061101d9190611f45565b92505b505095945050505050565b600080546001600160a01b038381166001600160a01b0319831681178455604051919092169283917f8be0079c531659141344cd1fd0a4f28419497f9722a3daafe3b4186f6b6457e09190a35050565b60008183111561108a57600080fd5b81600019811415611111576001805460405163f9c7bba560e01b81526001600160a01b038b811660048301529091169063f9c7bba590602401602060405180830381865afa1580156110e0573d6000803e3d6000fd5b505050506040513d601f19601f820116820180604052508101906111049190611f45565b61110e9190611fc6565b90505b835b8561111f84600161210e565b10801561112c5750818111155b1561158b57600154604051633ddfe34f60e11b81526001600160a01b038b81166004830152602482018490526000921690637bbfc69e90604401602060405180830381865afa158015611183573d6000803e3d6000fd5b505050506040513d601f19601f820116820180604052508101906111a79190611f93565b6040516370a0823160e01b81526001600160a01b038b8116600483015291925060009161128391908416906370a0823190602401602060405180830381865afa1580156111f8573d6000803e3d6000fd5b505050506040513d601f19601f8201168201806040525081019061121c9190611f45565b836001600160a01b03166375de29026040518163ffffffff1660e01b8152600401602060405180830381865afa15801561125a573d6000803e3d6000fd5b505050506040513d601f19601f8201168201806040525081019061127e9190611f45565b611b73565b604051636eb1769f60e11b81526001600160a01b038c811660048301523060248301529192506112d99183919085169063dd62ed3e90604401602060405180830381865afa15801561125a573d6000803e3d6000fd5b9050806112e7575050611579565b600060001989146113f5576000836001600160a01b03166399530b066040518163ffffffff1660e01b8152600401602060405180830381865afa158015611332573d6000803e3d6000fd5b505050506040513d601f19601f820116820180604052508101906113569190611f45565b846001600160a01b031663313ce5676040518163ffffffff1660e01b8152600401602060405180830381865afa158015611394573d6000803e3d6000fd5b505050506040513d601f19601f820116820180604052508101906113b89190611f45565b6113c390600a6120c1565b6113cd898d611fc6565b6113d791906120cd565b6113e191906120ec565b90506113ed8382611b73565b9150506113f8565b50805b6040516370a0823160e01b81523060048201526000906001600160a01b038516906370a0823190602401602060405180830381865afa15801561143f573d6000803e3d6000fd5b505050506040513d601f19601f820116820180604052508101906114639190611f45565b9050611471848d3085611b05565b604051627b8a6760e11b8152600481018390526001600160a01b038c8116602483015285169062f714ce906044016020604051808303816000875af11580156114be573d6000803e3d6000fd5b505050506040513d601f19601f820116820180604052508101906114e29190611f45565b6114ec908861210e565b6040516370a0823160e01b81523060048201529097506000906001600160a01b038616906370a0823190602401602060405180830381865afa158015611536573d6000803e3d6000fd5b505050506040513d601f19601f8201168201806040525081019061155a9190611f45565b90508181111561157357611573858e610f9e8585611fc6565b50505050505b8061158381612126565b915050611113565b50509695505050505050565b6001805460405163f9c7bba560e01b81526001600160a01b0388811660048301526000938493909291169063f9c7bba590602401602060405180830381865afa1580156115e8573d6000803e3d6000fd5b505050506040513d601f19601f8201168201806040525081019061160c9190611f45565b6116169190611fc6565b9050841580611623575080155b156116325760009150506102dc565b600154604051633ddfe34f60e11b81526001600160a01b038981166004830152602482018490526000921690637bbfc69e90604401602060405180830381865afa158015611684573d6000803e3d6000fd5b505050506040513d601f19601f820116820180604052508101906116a89190611f93565b9050600061177e87836001600160a01b03166301e1d1146040518163ffffffff1660e01b8152600401602060405180830381865afa1580156116ee573d6000803e3d6000fd5b505050506040513d601f19601f820116820180604052508101906117129190611f45565b846001600160a01b031663ecf708586040518163ffffffff1660e01b8152600401602060405180830381865afa158015611750573d6000803e3d6000fd5b505050506040513d601f19601f820116820180604052508101906117749190611f45565b61127e9190611fc6565b6040516370a0823160e01b81523060048201529091506000906001600160a01b038b16906370a0823190602401602060405180830381865afa1580156117c8573d6000803e3d6000fd5b505050506040513d601f19601f820116820180604052508101906117ec9190611f45565b905061180a8a8a30858b6118058c61127e60018d611fc6565b61107b565b506040516370a0823160e01b81523060048201526000906001600160a01b038c16906370a0823190602401602060405180830381865afa158015611852573d6000803e3d6000fd5b505050506040513d601f19601f820116820180604052508101906118769190611f45565b90508181116118b95760405162461bcd60e51b815260206004820152600f60248201526e1dda5d1a191c985dc819985a5b1959608a1b604482015260640161039a565b6118cf8b308c6118c98686611fc6565b89610c15565b506040516370a0823160e01b81523060048201526000906001600160a01b038d16906370a0823190602401602060405180830381865afa158015611917573d6000803e3d6000fd5b505050506040513d601f19601f8201168201806040525081019061193b9190611f45565b905080821161197d5760405162461bcd60e51b815260206004820152600e60248201526d19195c1bdcda5d0819985a5b195960921b604482015260640161039a565b6119878183611fc6565b9650866119948484611fc6565b11156119a9576119a98c8c610f9e8685611fc6565b50505050505095945050505050565b801580611a325750604051636eb1769f60e11b81523060048201526001600160a01b03838116602483015284169063dd62ed3e90604401602060405180830381865afa158015611a0c573d6000803e3d6000fd5b505050506040513d601f19601f82011682018060405250810190611a309190611f45565b155b611a9d5760405162461bcd60e51b815260206004820152603660248201527f5361666545524332303a20617070726f76652066726f6d206e6f6e2d7a65726f60448201527520746f206e6f6e2d7a65726f20616c6c6f77616e636560501b606482015260840161039a565b6040516001600160a01b038316602482015260448101829052611b0090849063095ea7b360e01b906064015b60408051601f198184030181529190526020810180516001600160e01b03166001600160e01b031990931692909217909152611b89565b505050565b6040516001600160a01b0380851660248301528316604482015260648101829052611b3d9085906323b872dd60e01b90608401611ac9565b50505050565b6040516001600160a01b038316602482015260448101829052611b0090849063a9059cbb60e01b90606401611ac9565b6000818310611b825781610367565b5090919050565b6000611bde826040518060400160405280602081526020017f5361666545524332303a206c6f772d6c6576656c2063616c6c206661696c6564815250856001600160a01b0316611c5b9092919063ffffffff16565b805190915015611b005780806020019051810190611bfc9190612141565b611b005760405162461bcd60e51b815260206004820152602a60248201527f5361666545524332303a204552433230206f7065726174696f6e20646964206e6044820152691bdd081cdd58d8d9595960b21b606482015260840161039a565b6060610450848460008585843b611cb45760405162461bcd60e51b815260206004820152601d60248201527f416464726573733a2063616c6c20746f206e6f6e2d636f6e7472616374000000604482015260640161039a565b600080866001600160a01b03168587604051611cd0919061218f565b60006040518083038185875af1925050503d8060008114611d0d576040519150601f19603f3d011682016040523d82523d6000602084013e611d12565b606091505b5091509150611d22828286611d2d565b979650505050505050565b60608315611d3c575081610453565b825115611d4c5782518084602001fd5b8160405162461bcd60e51b815260040161039a91906121ab565b6001600160a01b0381168114610b4f57600080fd5b60008060008060808587031215611d9157600080fd5b8435611d9c81611d66565b93506020850135611dac81611d66565b93969395505050506040820135916060013590565b60008060408385031215611dd457600080fd5b8235611ddf81611d66565b91506020830135611def81611d66565b809150509250929050565b600080600080600060a08688031215611e1257600080fd5b8535611e1d81611d66565b94506020860135611e2d81611d66565b94979496505050506040830135926060810135926080909101359150565b60008060408385031215611e5e57600080fd5b8235611e6981611d66565b946020939093013593505050565b600080600060608486031215611e8c57600080fd5b8335611e9781611d66565b92506020840135611ea781611d66565b929592945050506040919091013590565b600060208284031215611eca57600080fd5b813561045381611d66565b600080600060608486031215611eea57600080fd5b8335611ef581611d66565b95602085013595506040909401359392505050565b60008060008060808587031215611f2057600080fd5b8435611f2b81611d66565b966020860135965060408601359560600135945092505050565b600060208284031215611f5757600080fd5b5051919050565b6020808252818101527f4f776e61626c653a2063616c6c6572206973206e6f7420746865206f776e6572604082015260600190565b600060208284031215611fa557600080fd5b815161045381611d66565b634e487b7160e01b600052601160045260246000fd5b600082821015611fd857611fd8611fb0565b500390565b600181815b80851115612018578160001904821115611ffe57611ffe611fb0565b8085161561200b57918102915b93841c9390800290611fe2565b509250929050565b60008261202f5750600161036a565b8161203c5750600061036a565b8160018114612052576002811461205c57612078565b600191505061036a565b60ff84111561206d5761206d611fb0565b50506001821b61036a565b5060208310610133831016604e8410600b841016171561209b575081810a61036a565b6120a58383611fdd565b80600019048211156120b9576120b9611fb0565b029392505050565b60006103678383612020565b60008160001904831182151516156120e7576120e7611fb0565b500290565b60008261210957634e487b7160e01b600052601260045260246000fd5b500490565b6000821982111561212157612121611fb0565b500190565b600060001982141561213a5761213a611fb0565b5060010190565b60006020828403121561215357600080fd5b8151801515811461045357600080fd5b60005b8381101561217e578181015183820152602001612166565b83811115611b3d5750506000910152565b600082516121a1818460208701612163565b9190910192915050565b60208152600082518060208401526121ca816040850160208701612163565b601f01601f1916919091016040019291505056fea26469706673582212200cea3ebec74118bc22bcf3a05a4dde95a48d8578b4af0bf81c3ce642b1c9cde064736f6c634300080a0033",
  "bytecodeSha1": "a6f04bf03972add73b6ad24aea5c269f49905e06",
  "compiler": {
    "evm_version": "istanbul",
    "optimizer": {
      "enabled": true,
      "runs": 200
    },
    "version": "0.8.10+commit.fc410830"
  },
  "contractName": "ShapeShiftDAORouter",
  "language": "Solidity",
  "natspec": {
    "kind": "dev",
    "methods": {
      "deposit(address,address,uint256)": {
        "details": "The caller must approve this contract to utilize the specified ERC20 or this call will revert.",
        "notice": "Called to deposit the caller's tokens into the most-current vault, crediting the minted shares to recipient.",
        "params": {
          "amount": "Amount of tokens to deposit; tokens that cannot be deposited will be refunded. If `DEPOSIT_EVERYTHING`, just deposit everything.",
          "recipient": "Address to receive the issued vault tokens",
          "token": "Address of the ERC20 token being deposited"
        },
        "returns": {
          "_0": "Total vault shares received by recipient"
        }
      },
      "deposit(address,address,uint256,uint256)": {
        "details": "The caller must approve this contract to utilize the specified ERC20 or this call will revert.",
        "notice": "Called to deposit the caller's tokens into a specific vault, crediting the minted shares to recipient.",
        "params": {
          "amount": "Amount of tokens to deposit; tokens that cannot be deposited will be refunded. If `DEPOSIT_EVERYTHING`, just deposit everything.",
          "recipient": "Address to receive the issued vault tokens",
          "token": "Address of the ERC20 token being deposited",
          "vaultId": "Vault id to deposit into; pass `MAX_VAULT_ID` to deposit into the latest vault"
        },
        "returns": {
          "_0": "Total vault shares received by recipient"
        }
      },
      "migrate(address)": {
        "details": "The caller must approve this contract to use their vault shares or this call will revert.",
        "notice": "Called to migrate all of the caller's shares to the latest vault.",
        "params": {
          "token": "Address of the ERC20 token to migrate the vaults of"
        },
        "returns": {
          "_0": "The number of tokens migrated."
        }
      },
      "migrate(address,uint256)": {
        "details": "The caller must approve this contract to use their vault shares or this call will revert.",
        "notice": "Called to migrate the caller's shares to the latest vault.",
        "params": {
          "amount": "Maximum number of tokens to migrate from all vaults; actual migration may be less. If `MIGRATE_EVERYTHING`, just migrate everything.",
          "token": "Address of the ERC20 token to migrate the vaults of"
        },
        "returns": {
          "_0": "The number of tokens migrated."
        }
      },
      "migrate(address,uint256,uint256,uint256)": {
        "details": "The caller must approve this contract to use their vault shares or this call will revert.",
        "notice": "Called to migrate the caller's shares to the latest vault.",
        "params": {
          "amount": "Maximum number of tokens to migrate from all vaults; actual migration may be less. If `MIGRATE_EVERYTHING`, just migrate everything.",
          "firstVaultId": "First vault id to migrate from; 0 to start at the the beginning",
          "lastVaultId": "Last vault id to migrate from; `MAX_VAULT_ID` to migrate from all vaults",
          "token": "Address of the ERC20 token to migrate the vaults of"
        },
        "returns": {
          "_0": "The number of tokens migrated."
        }
      },
      "owner()": {
        "details": "Returns the address of the current owner."
      },
      "renounceOwnership()": {
        "details": "Leaves the contract without owner. It will not be possible to call `onlyOwner` functions anymore. Can only be called by the current owner. NOTE: Renouncing ownership will leave the contract without an owner, thereby removing any functionality that is only available to the owner."
      },
      "setRegistry(address)": {
        "notice": "Used to update the yearn registry. The choice of registry is SECURITY SENSITIVE, so only the owner can update it.",
        "params": {
          "yearnRegistry": "The new registry address."
        }
      },
      "totalAssets(address)": {
        "notice": "Returns the combined TVL for all the vaults for a specified token.",
        "returns": {
          "_0": "assets The sum of all the assets managed by the vaults for the specified token."
        }
      },
      "totalAssets(address,uint256,uint256)": {
        "notice": "Returns the combined TVL for all the specified vaults for a specified token.",
        "params": {
          "firstVaultId": "First vault id to include; 0 to start at the beginning",
          "lastVaultId": "Last vault id to include; `MAX_VAULT_ID` to include all vaults"
        },
        "returns": {
          "assets": "The sum of all the assets managed by the vaults for the specified token."
        }
      },
      "totalVaultBalance(address,address)": {
        "notice": "Gets the balance of an account across all the vaults for a token.",
        "params": {
          "account": "The address of the account to pull the balances for",
          "token": "Which ERC20 token to pull vault balances for"
        },
        "returns": {
          "_0": "The current value, in token base units, of the shares held by the specified account across all the vaults for the specified token."
        }
      },
      "totalVaultBalance(address,address,uint256,uint256)": {
        "notice": "Gets the balance of an account across certain vaults for a token.",
        "params": {
          "account": "The address of the account to pull the balances for",
          "firstVaultId": "First vault id to include; 0 to start at the beginning",
          "lastVaultId": "Last vault id to include; `MAX_VAULT_ID` to include all vaults",
          "token": "Which ERC20 token to pull vault balances for"
        },
        "returns": {
          "balance": "The current value, in token base units, of the shares held by the specified account across all the specified vaults for the specified token."
        }
      },
      "transferOwnership(address)": {
        "details": "Transfers ownership of the contract to a new account (`newOwner`). Can only be called by the current owner."
      },
      "withdraw(address,address)": {
        "details": "The caller must approve this contract to use their vault shares or this call will revert.",
        "notice": "Called to redeem the all of the caller's shares from underlying vault(s), with the proceeds distributed to recipient.",
        "params": {
          "recipient": "Address to receive the withdrawn tokens",
          "token": "Address of the ERC20 token to withdraw from vaults"
        },
        "returns": {
          "_0": "The number of tokens received by recipient."
        }
      },
      "withdraw(address,address,uint256)": {
        "details": "The caller must approve this contract to use their vault shares or this call will revert.",
        "notice": "Called to redeem the caller's shares from underlying vault(s), with the proceeds distributed to recipient.",
        "params": {
          "amount": "Maximum number of tokens to withdraw from all vaults; actual withdrawal may be less. If `WITHDRAW_EVERYTHING`, just withdraw everything.",
          "recipient": "Address to receive the withdrawn tokens",
          "token": "Address of the ERC20 token to withdraw from vaults"
        },
        "returns": {
          "_0": "The number of tokens received by recipient."
        }
      },
      "withdraw(address,address,uint256,uint256,uint256)": {
        "details": "The caller must approve this contract to use their vault shares or this call will revert.",
        "notice": "Called to redeem the caller's shares from underlying vault(s), with the proceeds distributed to recipient.",
        "params": {
          "amount": "Maximum number of tokens to withdraw from all vaults; actual withdrawal may be less. If `WITHDRAW_EVERYTHING`, just withdraw everything.",
          "firstVaultId": "First vault id to pull from; 0 to start at the the beginning",
          "lastVaultId": "Last vault id to pull from; `MAX_VAULT_ID` to withdraw from all vaults",
          "recipient": "Address to receive the withdrawn tokens",
          "token": "Address of the ERC20 token to withdraw from vaults"
        },
        "returns": {
          "_0": "The number of tokens received by recipient."
        }
      }
    },
    "notice": "Adapted from the Yearn BaseRouter for Shapeshift's use case of a router that forward native vault tokens to the caller and does not hold any funds or assets (vault tokens or other ERC20 tokens)",
    "version": 1
  },
  "opcodes": "PUSH1 0x80 PUSH1 0x40 MSTORE CALLVALUE DUP1 ISZERO PUSH2 0x10 JUMPI PUSH1 0x0 DUP1 REVERT JUMPDEST POP PUSH1 0x4 CALLDATASIZE LT PUSH2 0x12C JUMPI PUSH1 0x0 CALLDATALOAD PUSH1 0xE0 SHR DUP1 PUSH4 0xAD68EBF7 GT PUSH2 0xAD JUMPI DUP1 PUSH4 0xEE424278 GT PUSH2 0x71 JUMPI DUP1 PUSH4 0xEE424278 EQ PUSH2 0x26E JUMPI DUP1 PUSH4 0xF2FDE38B EQ PUSH2 0x281 JUMPI DUP1 PUSH4 0xF3E0FFBF EQ PUSH2 0x294 JUMPI DUP1 PUSH4 0xF940E385 EQ PUSH2 0x2A7 JUMPI DUP1 PUSH4 0xF9C7BBA5 EQ PUSH2 0x2BA JUMPI PUSH1 0x0 DUP1 REVERT JUMPDEST DUP1 PUSH4 0xAD68EBF7 EQ PUSH2 0x20F JUMPI DUP1 PUSH4 0xCE5494BB EQ PUSH2 0x222 JUMPI DUP1 PUSH4 0xD9CAED12 EQ PUSH2 0x235 JUMPI DUP1 PUSH4 0xE0CEC5FB EQ PUSH2 0x248 JUMPI DUP1 PUSH4 0xE177DC70 EQ PUSH2 0x25B JUMPI PUSH1 0x0 DUP1 REVERT JUMPDEST DUP1 PUSH4 0x7BBFC69E GT PUSH2 0xF4 JUMPI DUP1 PUSH4 0x7BBFC69E EQ PUSH2 0x1B2 JUMPI DUP1 PUSH4 0x8340F549 EQ PUSH2 0x1C5 JUMPI DUP1 PUSH4 0x8DA5CB5B EQ PUSH2 0x1D8 JUMPI DUP1 PUSH4 0x900AB8B5 EQ PUSH2 0x1E9 JUMPI DUP1 PUSH4 0xA91EE0DC EQ PUSH2 0x1FC JUMPI PUSH1 0x0 DUP1 REVERT JUMPDEST DUP1 PUSH4 0x20E8C565 EQ PUSH2 0x131 JUMPI DUP1 PUSH4 0x212A8C95 EQ PUSH2 0x157 JUMPI DUP1 PUSH4 0x715018A6 EQ PUSH2 0x16A JUMPI DUP1 PUSH4 0x76234759 EQ PUSH2 0x174 JUMPI DUP1 PUSH4 0x7B103999 EQ PUSH2 0x187 JUMPI JUMPDEST PUSH1 0x0 DUP1 REVERT JUMPDEST PUSH2 0x144 PUSH2 0x13F CALLDATASIZE PUSH1 0x4 PUSH2 0x1D7B JUMP JUMPDEST PUSH2 0x2CD JUMP JUMPDEST PUSH1 0x40 MLOAD SWAP1 DUP2 MSTORE PUSH1 0x20 ADD JUMPDEST PUSH1 0x40 MLOAD DUP1 SWAP2 SUB SWAP1 RETURN JUMPDEST PUSH2 0x144 PUSH2 0x165 CALLDATASIZE PUSH1 0x4 PUSH2 0x1DC1 JUMP JUMPDEST PUSH2 0x2E5 JUMP JUMPDEST PUSH2 0x172 PUSH2 0x370 JUMP JUMPDEST STOP JUMPDEST PUSH2 0x144 PUSH2 0x182 CALLDATASIZE PUSH1 0x4 PUSH2 0x1DFA JUMP JUMPDEST PUSH2 0x3AF JUMP JUMPDEST PUSH1 0x1 SLOAD PUSH2 0x19A SWAP1 PUSH1 0x1 PUSH1 0x1 PUSH1 0xA0 SHL SUB AND DUP2 JUMP JUMPDEST PUSH1 0x40 MLOAD PUSH1 0x1 PUSH1 0x1 PUSH1 0xA0 SHL SUB SWAP1 SWAP2 AND DUP2 MSTORE PUSH1 0x20 ADD PUSH2 0x14E JUMP JUMPDEST PUSH2 0x19A PUSH2 0x1C0 CALLDATASIZE PUSH1 0x4 PUSH2 0x1E4B JUMP JUMPDEST PUSH2 0x3C9 JUMP JUMPDEST PUSH2 0x144 PUSH2 0x1D3 CALLDATASIZE PUSH1 0x4 PUSH2 0x1E77 JUMP JUMPDEST PUSH2 0x43F JUMP JUMPDEST PUSH1 0x0 SLOAD PUSH1 0x1 PUSH1 0x1 PUSH1 0xA0 SHL SUB AND PUSH2 0x19A JUMP JUMPDEST PUSH2 0x144 PUSH2 0x1F7 CALLDATASIZE PUSH1 0x4 PUSH2 0x1D7B JUMP JUMPDEST PUSH2 0x45A JUMP JUMPDEST PUSH2 0x172 PUSH2 0x20A CALLDATASIZE PUSH1 0x4 PUSH2 0x1EB8 JUMP JUMPDEST PUSH2 0x6ED JUMP JUMPDEST PUSH2 0x144 PUSH2 0x21D CALLDATASIZE PUSH1 0x4 PUSH2 0x1E4B JUMP JUMPDEST PUSH2 0x85E JUMP JUMPDEST PUSH2 0x144 PUSH2 0x230 CALLDATASIZE PUSH1 0x4 PUSH2 0x1EB8 JUMP JUMPDEST PUSH2 0x870 JUMP JUMPDEST PUSH2 0x144 PUSH2 0x243 CALLDATASIZE PUSH1 0x4 PUSH2 0x1E77 JUMP JUMPDEST PUSH2 0x884 JUMP JUMPDEST PUSH2 0x144 PUSH2 0x256 CALLDATASIZE PUSH1 0x4 PUSH2 0x1ED5 JUMP JUMPDEST PUSH2 0x897 JUMP JUMPDEST PUSH2 0x19A PUSH2 0x269 CALLDATASIZE PUSH1 0x4 PUSH2 0x1EB8 JUMP JUMPDEST PUSH2 0xA39 JUMP JUMPDEST PUSH2 0x144 PUSH2 0x27C CALLDATASIZE PUSH1 0x4 PUSH2 0x1F0A JUMP JUMPDEST PUSH2 0xAA8 JUMP JUMPDEST PUSH2 0x172 PUSH2 0x28F CALLDATASIZE PUSH1 0x4 PUSH2 0x1EB8 JUMP JUMPDEST PUSH2 0xAB7 JUMP JUMPDEST PUSH2 0x144 PUSH2 0x2A2 CALLDATASIZE PUSH1 0x4 PUSH2 0x1EB8 JUMP JUMPDEST PUSH2 0xB52 JUMP JUMPDEST PUSH2 0x144 PUSH2 0x2B5 CALLDATASIZE PUSH1 0x4 PUSH2 0x1DC1 JUMP JUMPDEST PUSH2 0xBCD JUMP JUMPDEST PUSH2 0x144 PUSH2 0x2C8 CALLDATASIZE PUSH1 0x4 PUSH2 0x1EB8 JUMP JUMPDEST PUSH2 0xBE2 JUMP JUMPDEST PUSH1 0x0 PUSH2 0x2DC DUP6 CALLER DUP7 DUP7 DUP7 PUSH2 0xC15 JUMP JUMPDEST SWAP6 SWAP5 POP POP POP POP POP JUMP JUMPDEST PUSH1 0x40 MLOAD PUSH4 0x900AB8B5 PUSH1 0xE0 SHL DUP2 MSTORE PUSH1 0x1 PUSH1 0x1 PUSH1 0xA0 SHL SUB DUP1 DUP5 AND PUSH1 0x4 DUP4 ADD MSTORE DUP3 AND PUSH1 0x24 DUP3 ADD MSTORE PUSH1 0x0 PUSH1 0x44 DUP3 ADD DUP2 SWAP1 MSTORE PUSH1 0x0 NOT PUSH1 0x64 DUP4 ADD MSTORE SWAP1 ADDRESS SWAP1 PUSH4 0x900AB8B5 SWAP1 PUSH1 0x84 ADD PUSH1 0x20 PUSH1 0x40 MLOAD DUP1 DUP4 SUB DUP2 DUP7 GAS STATICCALL ISZERO DUP1 ISZERO PUSH2 0x343 JUMPI RETURNDATASIZE PUSH1 0x0 DUP1 RETURNDATACOPY RETURNDATASIZE PUSH1 0x0 REVERT JUMPDEST POP POP POP POP PUSH1 0x40 MLOAD RETURNDATASIZE PUSH1 0x1F NOT PUSH1 0x1F DUP3 ADD AND DUP3 ADD DUP1 PUSH1 0x40 MSTORE POP DUP2 ADD SWAP1 PUSH2 0x367 SWAP2 SWAP1 PUSH2 0x1F45 JUMP JUMPDEST SWAP1 POP JUMPDEST SWAP3 SWAP2 POP POP JUMP JUMPDEST PUSH1 0x0 SLOAD PUSH1 0x1 PUSH1 0x1 PUSH1 0xA0 SHL SUB AND CALLER EQ PUSH2 0x3A3 JUMPI PUSH1 0x40 MLOAD PUSH3 0x461BCD PUSH1 0xE5 SHL DUP2 MSTORE PUSH1 0x4 ADD PUSH2 0x39A SWAP1 PUSH2 0x1F5E JUMP JUMPDEST PUSH1 0x40 MLOAD DUP1 SWAP2 SUB SWAP1 REVERT JUMPDEST PUSH2 0x3AD PUSH1 0x0 PUSH2 0x102B JUMP JUMPDEST JUMP JUMPDEST PUSH1 0x0 PUSH2 0x3BF DUP7 CALLER DUP8 DUP8 DUP8 DUP8 PUSH2 0x107B JUMP JUMPDEST SWAP7 SWAP6 POP POP POP POP POP POP JUMP JUMPDEST PUSH1 0x1 SLOAD PUSH1 0x40 MLOAD PUSH4 0x3DDFE34F PUSH1 0xE1 SHL DUP2 MSTORE PUSH1 0x1 PUSH1 0x1 PUSH1 0xA0 SHL SUB DUP5 DUP2 AND PUSH1 0x4 DUP4 ADD MSTORE PUSH1 0x24 DUP3 ADD DUP5 SWAP1 MSTORE PUSH1 0x0 SWAP3 AND SWAP1 PUSH4 0x7BBFC69E SWAP1 PUSH1 0x44 ADD PUSH1 0x20 PUSH1 0x40 MLOAD DUP1 DUP4 SUB DUP2 DUP7 GAS STATICCALL ISZERO DUP1 ISZERO PUSH2 0x41B JUMPI RETURNDATASIZE PUSH1 0x0 DUP1 RETURNDATACOPY RETURNDATASIZE PUSH1 0x0 REVERT JUMPDEST POP POP POP POP PUSH1 0x40 MLOAD RETURNDATASIZE PUSH1 0x1F NOT PUSH1 0x1F DUP3 ADD AND DUP3 ADD DUP1 PUSH1 0x40 MSTORE POP DUP2 ADD SWAP1 PUSH2 0x367 SWAP2 SWAP1 PUSH2 0x1F93 JUMP JUMPDEST PUSH1 0x0 PUSH2 0x450 DUP5 CALLER DUP6 DUP6 PUSH1 0x0 NOT PUSH2 0xC15 JUMP JUMPDEST SWAP1 POP JUMPDEST SWAP4 SWAP3 POP POP POP JUMP JUMPDEST PUSH1 0x0 DUP2 DUP4 GT ISZERO PUSH2 0x469 JUMPI PUSH1 0x0 DUP1 REVERT JUMPDEST DUP2 PUSH1 0x0 NOT DUP2 EQ ISZERO PUSH2 0x4F0 JUMPI PUSH1 0x1 DUP1 SLOAD PUSH1 0x40 MLOAD PUSH4 0xF9C7BBA5 PUSH1 0xE0 SHL DUP2 MSTORE PUSH1 0x1 PUSH1 0x1 PUSH1 0xA0 SHL SUB DUP10 DUP2 AND PUSH1 0x4 DUP4 ADD MSTORE SWAP1 SWAP2 AND SWAP1 PUSH4 0xF9C7BBA5 SWAP1 PUSH1 0x24 ADD PUSH1 0x20 PUSH1 0x40 MLOAD DUP1 DUP4 SUB DUP2 DUP7 GAS STATICCALL ISZERO DUP1 ISZERO PUSH2 0x4BF JUMPI RETURNDATASIZE PUSH1 0x0 DUP1 RETURNDATACOPY RETURNDATASIZE PUSH1 0x0 REVERT JUMPDEST POP POP POP POP PUSH1 0x40 MLOAD RETURNDATASIZE PUSH1 0x1F NOT PUSH1 0x1F DUP3 ADD AND DUP3 ADD DUP1 PUSH1 0x40 MSTORE POP DUP2 ADD SWAP1 PUSH2 0x4E3 SWAP2 SWAP1 PUSH2 0x1F45 JUMP JUMPDEST PUSH2 0x4ED SWAP2 SWAP1 PUSH2 0x1FC6 JUMP JUMPDEST SWAP1 POP JUMPDEST DUP4 JUMPDEST DUP2 DUP2 GT PUSH2 0x6E3 JUMPI PUSH1 0x1 SLOAD PUSH1 0x40 MLOAD PUSH4 0x3DDFE34F PUSH1 0xE1 SHL DUP2 MSTORE PUSH1 0x1 PUSH1 0x1 PUSH1 0xA0 SHL SUB DUP10 DUP2 AND PUSH1 0x4 DUP4 ADD MSTORE PUSH1 0x24 DUP3 ADD DUP5 SWAP1 MSTORE PUSH1 0x0 SWAP3 AND SWAP1 PUSH4 0x7BBFC69E SWAP1 PUSH1 0x44 ADD PUSH1 0x20 PUSH1 0x40 MLOAD DUP1 DUP4 SUB DUP2 DUP7 GAS STATICCALL ISZERO DUP1 ISZERO PUSH2 0x54B JUMPI RETURNDATASIZE PUSH1 0x0 DUP1 RETURNDATACOPY RETURNDATASIZE PUSH1 0x0 REVERT JUMPDEST POP POP POP POP PUSH1 0x40 MLOAD RETURNDATASIZE PUSH1 0x1F NOT PUSH1 0x1F DUP3 ADD AND DUP3 ADD DUP1 PUSH1 0x40 MSTORE POP DUP2 ADD SWAP1 PUSH2 0x56F SWAP2 SWAP1 PUSH2 0x1F93 JUMP JUMPDEST SWAP1 POP PUSH1 0x0 DUP2 PUSH1 0x1 PUSH1 0x1 PUSH1 0xA0 SHL SUB AND PUSH4 0x313CE567 PUSH1 0x40 MLOAD DUP2 PUSH4 0xFFFFFFFF AND PUSH1 0xE0 SHL DUP2 MSTORE PUSH1 0x4 ADD PUSH1 0x20 PUSH1 0x40 MLOAD DUP1 DUP4 SUB DUP2 DUP7 GAS STATICCALL ISZERO DUP1 ISZERO PUSH2 0x5B1 JUMPI RETURNDATASIZE PUSH1 0x0 DUP1 RETURNDATACOPY RETURNDATASIZE PUSH1 0x0 REVERT JUMPDEST POP POP POP POP PUSH1 0x40 MLOAD RETURNDATASIZE PUSH1 0x1F NOT PUSH1 0x1F DUP3 ADD AND DUP3 ADD DUP1 PUSH1 0x40 MSTORE POP DUP2 ADD SWAP1 PUSH2 0x5D5 SWAP2 SWAP1 PUSH2 0x1F45 JUMP JUMPDEST PUSH2 0x5E0 SWAP1 PUSH1 0xA PUSH2 0x20C1 JUMP JUMPDEST DUP3 PUSH1 0x1 PUSH1 0x1 PUSH1 0xA0 SHL SUB AND PUSH4 0x99530B06 PUSH1 0x40 MLOAD DUP2 PUSH4 0xFFFFFFFF AND PUSH1 0xE0 SHL DUP2 MSTORE PUSH1 0x4 ADD PUSH1 0x20 PUSH1 0x40 MLOAD DUP1 DUP4 SUB DUP2 DUP7 GAS STATICCALL ISZERO DUP1 ISZERO PUSH2 0x61E JUMPI RETURNDATASIZE PUSH1 0x0 DUP1 RETURNDATACOPY RETURNDATASIZE PUSH1 0x0 REVERT JUMPDEST POP POP POP POP PUSH1 0x40 MLOAD RETURNDATASIZE PUSH1 0x1F NOT PUSH1 0x1F DUP3 ADD AND DUP3 ADD DUP1 PUSH1 0x40 MSTORE POP DUP2 ADD SWAP1 PUSH2 0x642 SWAP2 SWAP1 PUSH2 0x1F45 JUMP JUMPDEST PUSH1 0x40 MLOAD PUSH4 0x70A08231 PUSH1 0xE0 SHL DUP2 MSTORE PUSH1 0x1 PUSH1 0x1 PUSH1 0xA0 SHL SUB DUP12 DUP2 AND PUSH1 0x4 DUP4 ADD MSTORE DUP6 AND SWAP1 PUSH4 0x70A08231 SWAP1 PUSH1 0x24 ADD PUSH1 0x20 PUSH1 0x40 MLOAD DUP1 DUP4 SUB DUP2 DUP7 GAS STATICCALL ISZERO DUP1 ISZERO PUSH2 0x688 JUMPI RETURNDATASIZE PUSH1 0x0 DUP1 RETURNDATACOPY RETURNDATASIZE PUSH1 0x0 REVERT JUMPDEST POP POP POP POP PUSH1 0x40 MLOAD RETURNDATASIZE PUSH1 0x1F NOT PUSH1 0x1F DUP3 ADD AND DUP3 ADD DUP1 PUSH1 0x40 MSTORE POP DUP2 ADD SWAP1 PUSH2 0x6AC SWAP2 SWAP1 PUSH2 0x1F45 JUMP JUMPDEST PUSH2 0x6B6 SWAP2 SWAP1 PUSH2 0x20CD JUMP JUMPDEST PUSH2 0x6C0 SWAP2 SWAP1 PUSH2 0x20EC JUMP JUMPDEST SWAP1 POP PUSH2 0x6CC DUP2 DUP7 PUSH2 0x210E JUMP JUMPDEST SWAP5 POP POP POP DUP1 DUP1 PUSH2 0x6DB SWAP1 PUSH2 0x2126 JUMP JUMPDEST SWAP2 POP POP PUSH2 0x4F2 JUMP JUMPDEST POP POP SWAP5 SWAP4 POP POP POP POP JUMP JUMPDEST PUSH1 0x0 SLOAD PUSH1 0x1 PUSH1 0x1 PUSH1 0xA0 SHL SUB AND CALLER EQ PUSH2 0x717 JUMPI PUSH1 0x40 MLOAD PUSH3 0x461BCD PUSH1 0xE5 SHL DUP2 MSTORE PUSH1 0x4 ADD PUSH2 0x39A SWAP1 PUSH2 0x1F5E JUMP JUMPDEST PUSH1 0x1 SLOAD PUSH1 0x40 DUP1 MLOAD PUSH4 0x5AA6E675 PUSH1 0xE0 SHL DUP2 MSTORE SWAP1 MLOAD PUSH1 0x0 SWAP3 PUSH1 0x1 PUSH1 0x1 PUSH1 0xA0 SHL SUB AND SWAP2 PUSH4 0x5AA6E675 SWAP2 PUSH1 0x4 DUP1 DUP4 ADD SWAP3 PUSH1 0x20 SWAP3 SWAP2 SWAP1 DUP3 SWAP1 SUB ADD DUP2 DUP7 GAS STATICCALL ISZERO DUP1 ISZERO PUSH2 0x761 JUMPI RETURNDATASIZE PUSH1 0x0 DUP1 RETURNDATACOPY RETURNDATASIZE PUSH1 0x0 REVERT JUMPDEST POP POP POP POP PUSH1 0x40 MLOAD RETURNDATASIZE PUSH1 0x1F NOT PUSH1 0x1F DUP3 ADD AND DUP3 ADD DUP1 PUSH1 0x40 MSTORE POP DUP2 ADD SWAP1 PUSH2 0x785 SWAP2 SWAP1 PUSH2 0x1F93 JUMP JUMPDEST PUSH1 0x1 DUP1 SLOAD PUSH1 0x1 PUSH1 0x1 PUSH1 0xA0 SHL SUB NOT AND PUSH1 0x1 PUSH1 0x1 PUSH1 0xA0 SHL SUB DUP6 AND SWAP1 DUP2 OR SWAP1 SWAP2 SSTORE PUSH1 0x40 DUP1 MLOAD PUSH4 0x5AA6E675 PUSH1 0xE0 SHL DUP2 MSTORE SWAP1 MLOAD SWAP3 SWAP4 POP SWAP1 SWAP2 PUSH4 0x5AA6E675 SWAP2 PUSH1 0x4 DUP1 DUP3 ADD SWAP3 PUSH1 0x20 SWAP3 SWAP1 SWAP2 SWAP1 DUP3 SWAP1 SUB ADD DUP2 DUP7 GAS STATICCALL ISZERO DUP1 ISZERO PUSH2 0x7E3 JUMPI RETURNDATASIZE PUSH1 0x0 DUP1 RETURNDATACOPY RETURNDATASIZE PUSH1 0x0 REVERT JUMPDEST POP POP POP POP PUSH1 0x40 MLOAD RETURNDATASIZE PUSH1 0x1F NOT PUSH1 0x1F DUP3 ADD AND DUP3 ADD DUP1 PUSH1 0x40 MSTORE POP DUP2 ADD SWAP1 PUSH2 0x807 SWAP2 SWAP1 PUSH2 0x1F93 JUMP JUMPDEST PUSH1 0x1 PUSH1 0x1 PUSH1 0xA0 SHL SUB AND DUP2 PUSH1 0x1 PUSH1 0x1 PUSH1 0xA0 SHL SUB AND EQ PUSH2 0x85A JUMPI PUSH1 0x40 MLOAD PUSH3 0x461BCD PUSH1 0xE5 SHL DUP2 MSTORE PUSH1 0x20 PUSH1 0x4 DUP3 ADD MSTORE PUSH1 0x10 PUSH1 0x24 DUP3 ADD MSTORE PUSH16 0x696E76616C6964207265676973747279 PUSH1 0x80 SHL PUSH1 0x44 DUP3 ADD MSTORE PUSH1 0x64 ADD PUSH2 0x39A JUMP JUMPDEST POP POP JUMP JUMPDEST PUSH1 0x0 PUSH2 0x367 DUP4 CALLER DUP5 PUSH1 0x0 PUSH1 0x0 NOT PUSH2 0x1597 JUMP JUMPDEST PUSH1 0x0 PUSH2 0x36A DUP3 CALLER PUSH1 0x0 NOT PUSH1 0x0 PUSH1 0x0 NOT PUSH2 0x1597 JUMP JUMPDEST PUSH1 0x0 PUSH2 0x450 DUP5 CALLER DUP6 DUP6 PUSH1 0x0 PUSH1 0x0 NOT PUSH2 0x107B JUMP JUMPDEST PUSH1 0x0 DUP2 DUP4 GT ISZERO PUSH2 0x8A6 JUMPI PUSH1 0x0 DUP1 REVERT JUMPDEST DUP2 PUSH1 0x0 NOT DUP2 EQ ISZERO PUSH2 0x92D JUMPI PUSH1 0x1 DUP1 SLOAD PUSH1 0x40 MLOAD PUSH4 0xF9C7BBA5 PUSH1 0xE0 SHL DUP2 MSTORE PUSH1 0x1 PUSH1 0x1 PUSH1 0xA0 SHL SUB DUP9 DUP2 AND PUSH1 0x4 DUP4 ADD MSTORE SWAP1 SWAP2 AND SWAP1 PUSH4 0xF9C7BBA5 SWAP1 PUSH1 0x24 ADD PUSH1 0x20 PUSH1 0x40 MLOAD DUP1 DUP4 SUB DUP2 DUP7 GAS STATICCALL ISZERO DUP1 ISZERO PUSH2 0x8FC JUMPI RETURNDATASIZE PUSH1 0x0 DUP1 RETURNDATACOPY RETURNDATASIZE PUSH1 0x0 REVERT JUMPDEST POP POP POP POP PUSH1 0x40 MLOAD RETURNDATASIZE PUSH1 0x1F NOT PUSH1 0x1F DUP3 ADD AND DUP3 ADD DUP1 PUSH1 0x40 MSTORE POP DUP2 ADD SWAP1 PUSH2 0x920 SWAP2 SWAP1 PUSH2 0x1F45 JUMP JUMPDEST PUSH2 0x92A SWAP2 SWAP1 PUSH2 0x1FC6 JUMP JUMPDEST SWAP1 POP JUMPDEST DUP4 JUMPDEST DUP2 DUP2 GT PUSH2 0xA30 JUMPI PUSH1 0x1 SLOAD PUSH1 0x40 MLOAD PUSH4 0x3DDFE34F PUSH1 0xE1 SHL DUP2 MSTORE PUSH1 0x1 PUSH1 0x1 PUSH1 0xA0 SHL SUB DUP9 DUP2 AND PUSH1 0x4 DUP4 ADD MSTORE PUSH1 0x24 DUP3 ADD DUP5 SWAP1 MSTORE PUSH1 0x0 SWAP3 AND SWAP1 PUSH4 0x7BBFC69E SWAP1 PUSH1 0x44 ADD PUSH1 0x20 PUSH1 0x40 MLOAD DUP1 DUP4 SUB DUP2 DUP7 GAS STATICCALL ISZERO DUP1 ISZERO PUSH2 0x988 JUMPI RETURNDATASIZE PUSH1 0x0 DUP1 RETURNDATACOPY RETURNDATASIZE PUSH1 0x0 REVERT JUMPDEST POP POP POP POP PUSH1 0x40 MLOAD RETURNDATASIZE PUSH1 0x1F NOT PUSH1 0x1F DUP3 ADD AND DUP3 ADD DUP1 PUSH1 0x40 MSTORE POP DUP2 ADD SWAP1 PUSH2 0x9AC SWAP2 SWAP1 PUSH2 0x1F93 JUMP JUMPDEST SWAP1 POP DUP1 PUSH1 0x1 PUSH1 0x1 PUSH1 0xA0 SHL SUB AND PUSH4 0x1E1D114 PUSH1 0x40 MLOAD DUP2 PUSH4 0xFFFFFFFF AND PUSH1 0xE0 SHL DUP2 MSTORE PUSH1 0x4 ADD PUSH1 0x20 PUSH1 0x40 MLOAD DUP1 DUP4 SUB DUP2 DUP7 GAS STATICCALL ISZERO DUP1 ISZERO PUSH2 0x9EC JUMPI RETURNDATASIZE PUSH1 0x0 DUP1 RETURNDATACOPY RETURNDATASIZE PUSH1 0x0 REVERT JUMPDEST POP POP POP POP PUSH1 0x40 MLOAD RETURNDATASIZE PUSH1 0x1F NOT PUSH1 0x1F DUP3 ADD AND DUP3 ADD DUP1 PUSH1 0x40 MSTORE POP DUP2 ADD SWAP1 PUSH2 0xA10 SWAP2 SWAP1 PUSH2 0x1F45 JUMP JUMPDEST PUSH2 0xA1A SWAP1 DUP6 PUSH2 0x210E JUMP JUMPDEST SWAP4 POP POP DUP1 DUP1 PUSH2 0xA28 SWAP1 PUSH2 0x2126 JUMP JUMPDEST SWAP2 POP POP PUSH2 0x92F JUMP JUMPDEST POP POP SWAP4 SWAP3 POP POP POP JUMP JUMPDEST PUSH1 0x1 SLOAD PUSH1 0x40 MLOAD PUSH4 0xE177DC7 PUSH1 0xE4 SHL DUP2 MSTORE PUSH1 0x1 PUSH1 0x1 PUSH1 0xA0 SHL SUB DUP4 DUP2 AND PUSH1 0x4 DUP4 ADD MSTORE PUSH1 0x0 SWAP3 AND SWAP1 PUSH4 0xE177DC70 SWAP1 PUSH1 0x24 ADD PUSH1 0x20 PUSH1 0x40 MLOAD DUP1 DUP4 SUB DUP2 DUP7 GAS STATICCALL ISZERO DUP1 ISZERO PUSH2 0xA84 JUMPI RETURNDATASIZE PUSH1 0x0 DUP1 RETURNDATACOPY RETURNDATASIZE PUSH1 0x0 REVERT JUMPDEST POP POP POP POP PUSH1 0x40 MLOAD RETURNDATASIZE PUSH1 0x1F NOT PUSH1 0x1F DUP3 ADD AND DUP3 ADD DUP1 PUSH1 0x40 MSTORE POP DUP2 ADD SWAP1 PUSH2 0x36A SWAP2 SWAP1 PUSH2 0x1F93 JUMP JUMPDEST PUSH1 0x0 PUSH2 0x2DC DUP6 CALLER DUP7 DUP7 DUP7 PUSH2 0x1597 JUMP JUMPDEST PUSH1 0x0 SLOAD PUSH1 0x1 PUSH1 0x1 PUSH1 0xA0 SHL SUB AND CALLER EQ PUSH2 0xAE1 JUMPI PUSH1 0x40 MLOAD PUSH3 0x461BCD PUSH1 0xE5 SHL DUP2 MSTORE PUSH1 0x4 ADD PUSH2 0x39A SWAP1 PUSH2 0x1F5E JUMP JUMPDEST PUSH1 0x1 PUSH1 0x1 PUSH1 0xA0 SHL SUB DUP2 AND PUSH2 0xB46 JUMPI PUSH1 0x40 MLOAD PUSH3 0x461BCD PUSH1 0xE5 SHL DUP2 MSTORE PUSH1 0x20 PUSH1 0x4 DUP3 ADD MSTORE PUSH1 0x26 PUSH1 0x24 DUP3 ADD MSTORE PUSH32 0x4F776E61626C653A206E6577206F776E657220697320746865207A65726F2061 PUSH1 0x44 DUP3 ADD MSTORE PUSH6 0x646472657373 PUSH1 0xD0 SHL PUSH1 0x64 DUP3 ADD MSTORE PUSH1 0x84 ADD PUSH2 0x39A JUMP JUMPDEST PUSH2 0xB4F DUP2 PUSH2 0x102B JUMP JUMPDEST POP JUMP JUMPDEST PUSH1 0x40 MLOAD PUSH4 0xE0CEC5FB PUSH1 0xE0 SHL DUP2 MSTORE PUSH1 0x1 PUSH1 0x1 PUSH1 0xA0 SHL SUB DUP3 AND PUSH1 0x4 DUP3 ADD MSTORE PUSH1 0x0 PUSH1 0x24 DUP3 ADD DUP2 SWAP1 MSTORE PUSH1 0x0 NOT PUSH1 0x44 DUP4 ADD MSTORE SWAP1 ADDRESS SWAP1 PUSH4 0xE0CEC5FB SWAP1 PUSH1 0x64 ADD JUMPDEST PUSH1 0x20 PUSH1 0x40 MLOAD DUP1 DUP4 SUB DUP2 DUP7 GAS STATICCALL ISZERO DUP1 ISZERO PUSH2 0xBA9 JUMPI RETURNDATASIZE PUSH1 0x0 DUP1 RETURNDATACOPY RETURNDATASIZE PUSH1 0x0 REVERT JUMPDEST POP POP POP POP PUSH1 0x40 MLOAD RETURNDATASIZE PUSH1 0x1F NOT PUSH1 0x1F DUP3 ADD AND DUP3 ADD DUP1 PUSH1 0x40 MSTORE POP DUP2 ADD SWAP1 PUSH2 0x36A SWAP2 SWAP1 PUSH2 0x1F45 JUMP JUMPDEST PUSH1 0x0 PUSH2 0x367 DUP4 CALLER DUP5 PUSH1 0x0 NOT PUSH1 0x0 PUSH1 0x0 NOT PUSH2 0x107B JUMP JUMPDEST PUSH1 0x1 SLOAD PUSH1 0x40 MLOAD PUSH4 0xF9C7BBA5 PUSH1 0xE0 SHL DUP2 MSTORE PUSH1 0x1 PUSH1 0x1 PUSH1 0xA0 SHL SUB DUP4 DUP2 AND PUSH1 0x4 DUP4 ADD MSTORE PUSH1 0x0 SWAP3 AND SWAP1 PUSH4 0xF9C7BBA5 SWAP1 PUSH1 0x24 ADD PUSH2 0xB8C JUMP JUMPDEST PUSH1 0x0 PUSH1 0x1 PUSH1 0x1 PUSH1 0xA0 SHL SUB DUP6 AND ADDRESS EQ ISZERO DUP2 PUSH1 0x0 NOT DUP5 EQ ISZERO PUSH2 0xCA4 JUMPI PUSH1 0x1 SLOAD PUSH1 0x40 MLOAD PUSH4 0xE177DC7 PUSH1 0xE4 SHL DUP2 MSTORE PUSH1 0x1 PUSH1 0x1 PUSH1 0xA0 SHL SUB DUP11 DUP2 AND PUSH1 0x4 DUP4 ADD MSTORE SWAP1 SWAP2 AND SWAP1 PUSH4 0xE177DC70 SWAP1 PUSH1 0x24 ADD PUSH1 0x20 PUSH1 0x40 MLOAD DUP1 DUP4 SUB DUP2 DUP7 GAS STATICCALL ISZERO DUP1 ISZERO PUSH2 0xC79 JUMPI RETURNDATASIZE PUSH1 0x0 DUP1 RETURNDATACOPY RETURNDATASIZE PUSH1 0x0 REVERT JUMPDEST POP POP POP POP PUSH1 0x40 MLOAD RETURNDATASIZE PUSH1 0x1F NOT PUSH1 0x1F DUP3 ADD AND DUP3 ADD DUP1 PUSH1 0x40 MSTORE POP DUP2 ADD SWAP1 PUSH2 0xC9D SWAP2 SWAP1 PUSH2 0x1F93 JUMP JUMPDEST SWAP1 POP PUSH2 0xD1C JUMP JUMPDEST PUSH1 0x1 SLOAD PUSH1 0x40 MLOAD PUSH4 0x3DDFE34F PUSH1 0xE1 SHL DUP2 MSTORE PUSH1 0x1 PUSH1 0x1 PUSH1 0xA0 SHL SUB DUP11 DUP2 AND PUSH1 0x4 DUP4 ADD MSTORE PUSH1 0x24 DUP3 ADD DUP8 SWAP1 MSTORE SWAP1 SWAP2 AND SWAP1 PUSH4 0x7BBFC69E SWAP1 PUSH1 0x44 ADD PUSH1 0x20 PUSH1 0x40 MLOAD DUP1 DUP4 SUB DUP2 DUP7 GAS STATICCALL ISZERO DUP1 ISZERO PUSH2 0xCF5 JUMPI RETURNDATASIZE PUSH1 0x0 DUP1 RETURNDATACOPY RETURNDATASIZE PUSH1 0x0 REVERT JUMPDEST POP POP POP POP PUSH1 0x40 MLOAD RETURNDATASIZE PUSH1 0x1F NOT PUSH1 0x1F DUP3 ADD AND DUP3 ADD DUP1 PUSH1 0x40 MSTORE POP DUP2 ADD SWAP1 PUSH2 0xD19 SWAP2 SWAP1 PUSH2 0x1F93 JUMP JUMPDEST SWAP1 POP JUMPDEST PUSH1 0x40 MLOAD PUSH4 0x6EB1769F PUSH1 0xE1 SHL DUP2 MSTORE ADDRESS PUSH1 0x4 DUP3 ADD MSTORE PUSH1 0x1 PUSH1 0x1 PUSH1 0xA0 SHL SUB DUP3 DUP2 AND PUSH1 0x24 DUP4 ADD MSTORE DUP7 SWAP2 SWAP1 DUP11 AND SWAP1 PUSH4 0xDD62ED3E SWAP1 PUSH1 0x44 ADD PUSH1 0x20 PUSH1 0x40 MLOAD DUP1 DUP4 SUB DUP2 DUP7 GAS STATICCALL ISZERO DUP1 ISZERO PUSH2 0xD6B JUMPI RETURNDATASIZE PUSH1 0x0 DUP1 RETURNDATACOPY RETURNDATASIZE PUSH1 0x0 REVERT JUMPDEST POP POP POP POP PUSH1 0x40 MLOAD RETURNDATASIZE PUSH1 0x1F NOT PUSH1 0x1F DUP3 ADD AND DUP3 ADD DUP1 PUSH1 0x40 MSTORE POP DUP2 ADD SWAP1 PUSH2 0xD8F SWAP2 SWAP1 PUSH2 0x1F45 JUMP JUMPDEST LT ISZERO PUSH2 0xDAE JUMPI PUSH2 0xDA1 DUP9 DUP3 PUSH1 0x0 PUSH2 0x19B8 JUMP JUMPDEST PUSH2 0xDAE DUP9 DUP3 PUSH1 0x0 NOT PUSH2 0x19B8 JUMP JUMPDEST PUSH1 0x0 NOT DUP6 EQ ISZERO PUSH2 0xE25 JUMPI PUSH1 0x40 MLOAD PUSH4 0x70A08231 PUSH1 0xE0 SHL DUP2 MSTORE PUSH1 0x1 PUSH1 0x1 PUSH1 0xA0 SHL SUB DUP9 DUP2 AND PUSH1 0x4 DUP4 ADD MSTORE DUP10 AND SWAP1 PUSH4 0x70A08231 SWAP1 PUSH1 0x24 ADD PUSH1 0x20 PUSH1 0x40 MLOAD DUP1 DUP4 SUB DUP2 DUP7 GAS STATICCALL ISZERO DUP1 ISZERO PUSH2 0xDFE JUMPI RETURNDATASIZE PUSH1 0x0 DUP1 RETURNDATACOPY RETURNDATASIZE PUSH1 0x0 REVERT JUMPDEST POP POP POP POP PUSH1 0x40 MLOAD RETURNDATASIZE PUSH1 0x1F NOT PUSH1 0x1F DUP3 ADD AND DUP3 ADD DUP1 PUSH1 0x40 MSTORE POP DUP2 ADD SWAP1 PUSH2 0xE22 SWAP2 SWAP1 PUSH2 0x1F45 JUMP JUMPDEST SWAP5 POP JUMPDEST DUP2 ISZERO PUSH2 0xFAA JUMPI PUSH1 0x40 MLOAD PUSH4 0x70A08231 PUSH1 0xE0 SHL DUP2 MSTORE ADDRESS PUSH1 0x4 DUP3 ADD MSTORE PUSH1 0x0 SWAP1 PUSH1 0x1 PUSH1 0x1 PUSH1 0xA0 SHL SUB DUP11 AND SWAP1 PUSH4 0x70A08231 SWAP1 PUSH1 0x24 ADD PUSH1 0x20 PUSH1 0x40 MLOAD DUP1 DUP4 SUB DUP2 DUP7 GAS STATICCALL ISZERO DUP1 ISZERO PUSH2 0xE72 JUMPI RETURNDATASIZE PUSH1 0x0 DUP1 RETURNDATACOPY RETURNDATASIZE PUSH1 0x0 REVERT JUMPDEST POP POP POP POP PUSH1 0x40 MLOAD RETURNDATASIZE PUSH1 0x1F NOT PUSH1 0x1F DUP3 ADD AND DUP3 ADD DUP1 PUSH1 0x40 MSTORE POP DUP2 ADD SWAP1 PUSH2 0xE96 SWAP2 SWAP1 PUSH2 0x1F45 JUMP JUMPDEST SWAP1 POP PUSH2 0xEA4 DUP10 DUP10 ADDRESS DUP10 PUSH2 0x1B05 JUMP JUMPDEST PUSH1 0x40 MLOAD PUSH4 0x6E553F65 PUSH1 0xE0 SHL DUP2 MSTORE PUSH1 0x4 DUP2 ADD DUP8 SWAP1 MSTORE PUSH1 0x1 PUSH1 0x1 PUSH1 0xA0 SHL SUB DUP9 DUP2 AND PUSH1 0x24 DUP4 ADD MSTORE DUP4 AND SWAP1 PUSH4 0x6E553F65 SWAP1 PUSH1 0x44 ADD PUSH1 0x20 PUSH1 0x40 MLOAD DUP1 DUP4 SUB DUP2 PUSH1 0x0 DUP8 GAS CALL ISZERO DUP1 ISZERO PUSH2 0xEF3 JUMPI RETURNDATASIZE PUSH1 0x0 DUP1 RETURNDATACOPY RETURNDATASIZE PUSH1 0x0 REVERT JUMPDEST POP POP POP POP PUSH1 0x40 MLOAD RETURNDATASIZE PUSH1 0x1F NOT PUSH1 0x1F DUP3 ADD AND DUP3 ADD DUP1 PUSH1 0x40 MSTORE POP DUP2 ADD SWAP1 PUSH2 0xF17 SWAP2 SWAP1 PUSH2 0x1F45 JUMP JUMPDEST PUSH1 0x40 MLOAD PUSH4 0x70A08231 PUSH1 0xE0 SHL DUP2 MSTORE ADDRESS PUSH1 0x4 DUP3 ADD MSTORE SWAP1 SWAP5 POP PUSH1 0x0 SWAP1 PUSH1 0x1 PUSH1 0x1 PUSH1 0xA0 SHL SUB DUP12 AND SWAP1 PUSH4 0x70A08231 SWAP1 PUSH1 0x24 ADD PUSH1 0x20 PUSH1 0x40 MLOAD DUP1 DUP4 SUB DUP2 DUP7 GAS STATICCALL ISZERO DUP1 ISZERO PUSH2 0xF61 JUMPI RETURNDATASIZE PUSH1 0x0 DUP1 RETURNDATACOPY RETURNDATASIZE PUSH1 0x0 REVERT JUMPDEST POP POP POP POP PUSH1 0x40 MLOAD RETURNDATASIZE PUSH1 0x1F NOT PUSH1 0x1F DUP3 ADD AND DUP3 ADD DUP1 PUSH1 0x40 MSTORE POP DUP2 ADD SWAP1 PUSH2 0xF85 SWAP2 SWAP1 PUSH2 0x1F45 JUMP JUMPDEST SWAP1 POP DUP2 DUP2 GT ISZERO PUSH2 0xFA3 JUMPI PUSH2 0xFA3 DUP11 DUP11 PUSH2 0xF9E DUP6 DUP6 PUSH2 0x1FC6 JUMP JUMPDEST PUSH2 0x1B43 JUMP JUMPDEST POP POP PUSH2 0x1020 JUMP JUMPDEST PUSH1 0x40 MLOAD PUSH4 0x6E553F65 PUSH1 0xE0 SHL DUP2 MSTORE PUSH1 0x4 DUP2 ADD DUP7 SWAP1 MSTORE PUSH1 0x1 PUSH1 0x1 PUSH1 0xA0 SHL SUB DUP8 DUP2 AND PUSH1 0x24 DUP4 ADD MSTORE DUP3 AND SWAP1 PUSH4 0x6E553F65 SWAP1 PUSH1 0x44 ADD PUSH1 0x20 PUSH1 0x40 MLOAD DUP1 DUP4 SUB DUP2 PUSH1 0x0 DUP8 GAS CALL ISZERO DUP1 ISZERO PUSH2 0xFF9 JUMPI RETURNDATASIZE PUSH1 0x0 DUP1 RETURNDATACOPY RETURNDATASIZE PUSH1 0x0 REVERT JUMPDEST POP POP POP POP PUSH1 0x40 MLOAD RETURNDATASIZE PUSH1 0x1F NOT PUSH1 0x1F DUP3 ADD AND DUP3 ADD DUP1 PUSH1 0x40 MSTORE POP DUP2 ADD SWAP1 PUSH2 0x101D SWAP2 SWAP1 PUSH2 0x1F45 JUMP JUMPDEST SWAP3 POP JUMPDEST POP POP SWAP6 SWAP5 POP POP POP POP POP JUMP JUMPDEST PUSH1 0x0 DUP1 SLOAD PUSH1 0x1 PUSH1 0x1 PUSH1 0xA0 SHL SUB DUP4 DUP2 AND PUSH1 0x1 PUSH1 0x1 PUSH1 0xA0 SHL SUB NOT DUP4 AND DUP2 OR DUP5 SSTORE PUSH1 0x40 MLOAD SWAP2 SWAP1 SWAP3 AND SWAP3 DUP4 SWAP2 PUSH32 0x8BE0079C531659141344CD1FD0A4F28419497F9722A3DAAFE3B4186F6B6457E0 SWAP2 SWAP1 LOG3 POP POP JUMP JUMPDEST PUSH1 0x0 DUP2 DUP4 GT ISZERO PUSH2 0x108A JUMPI PUSH1 0x0 DUP1 REVERT JUMPDEST DUP2 PUSH1 0x0 NOT DUP2 EQ ISZERO PUSH2 0x1111 JUMPI PUSH1 0x1 DUP1 SLOAD PUSH1 0x40 MLOAD PUSH4 0xF9C7BBA5 PUSH1 0xE0 SHL DUP2 MSTORE PUSH1 0x1 PUSH1 0x1 PUSH1 0xA0 SHL SUB DUP12 DUP2 AND PUSH1 0x4 DUP4 ADD MSTORE SWAP1 SWAP2 AND SWAP1 PUSH4 0xF9C7BBA5 SWAP1 PUSH1 0x24 ADD PUSH1 0x20 PUSH1 0x40 MLOAD DUP1 DUP4 SUB DUP2 DUP7 GAS STATICCALL ISZERO DUP1 ISZERO PUSH2 0x10E0 JUMPI RETURNDATASIZE PUSH1 0x0 DUP1 RETURNDATACOPY RETURNDATASIZE PUSH1 0x0 REVERT JUMPDEST POP POP POP POP PUSH1 0x40 MLOAD RETURNDATASIZE PUSH1 0x1F NOT PUSH1 0x1F DUP3 ADD AND DUP3 ADD DUP1 PUSH1 0x40 MSTORE POP DUP2 ADD SWAP1 PUSH2 0x1104 SWAP2 SWAP1 PUSH2 0x1F45 JUMP JUMPDEST PUSH2 0x110E SWAP2 SWAP1 PUSH2 0x1FC6 JUMP JUMPDEST SWAP1 POP JUMPDEST DUP4 JUMPDEST DUP6 PUSH2 0x111F DUP5 PUSH1 0x1 PUSH2 0x210E JUMP JUMPDEST LT DUP1 ISZERO PUSH2 0x112C JUMPI POP DUP2 DUP2 GT ISZERO JUMPDEST ISZERO PUSH2 0x158B JUMPI PUSH1 0x1 SLOAD PUSH1 0x40 MLOAD PUSH4 0x3DDFE34F PUSH1 0xE1 SHL DUP2 MSTORE PUSH1 0x1 PUSH1 0x1 PUSH1 0xA0 SHL SUB DUP12 DUP2 AND PUSH1 0x4 DUP4 ADD MSTORE PUSH1 0x24 DUP3 ADD DUP5 SWAP1 MSTORE PUSH1 0x0 SWAP3 AND SWAP1 PUSH4 0x7BBFC69E SWAP1 PUSH1 0x44 ADD PUSH1 0x20 PUSH1 0x40 MLOAD DUP1 DUP4 SUB DUP2 DUP7 GAS STATICCALL ISZERO DUP1 ISZERO PUSH2 0x1183 JUMPI RETURNDATASIZE PUSH1 0x0 DUP1 RETURNDATACOPY RETURNDATASIZE PUSH1 0x0 REVERT JUMPDEST POP POP POP POP PUSH1 0x40 MLOAD RETURNDATASIZE PUSH1 0x1F NOT PUSH1 0x1F DUP3 ADD AND DUP3 ADD DUP1 PUSH1 0x40 MSTORE POP DUP2 ADD SWAP1 PUSH2 0x11A7 SWAP2 SWAP1 PUSH2 0x1F93 JUMP JUMPDEST PUSH1 0x40 MLOAD PUSH4 0x70A08231 PUSH1 0xE0 SHL DUP2 MSTORE PUSH1 0x1 PUSH1 0x1 PUSH1 0xA0 SHL SUB DUP12 DUP2 AND PUSH1 0x4 DUP4 ADD MSTORE SWAP2 SWAP3 POP PUSH1 0x0 SWAP2 PUSH2 0x1283 SWAP2 SWAP1 DUP5 AND SWAP1 PUSH4 0x70A08231 SWAP1 PUSH1 0x24 ADD PUSH1 0x20 PUSH1 0x40 MLOAD DUP1 DUP4 SUB DUP2 DUP7 GAS STATICCALL ISZERO DUP1 ISZERO PUSH2 0x11F8 JUMPI RETURNDATASIZE PUSH1 0x0 DUP1 RETURNDATACOPY RETURNDATASIZE PUSH1 0x0 REVERT JUMPDEST POP POP POP POP PUSH1 0x40 MLOAD RETURNDATASIZE PUSH1 0x1F NOT PUSH1 0x1F DUP3 ADD AND DUP3 ADD DUP1 PUSH1 0x40 MSTORE POP DUP2 ADD SWAP1 PUSH2 0x121C SWAP2 SWAP1 PUSH2 0x1F45 JUMP JUMPDEST DUP4 PUSH1 0x1 PUSH1 0x1 PUSH1 0xA0 SHL SUB AND PUSH4 0x75DE2902 PUSH1 0x40 MLOAD DUP2 PUSH4 0xFFFFFFFF AND PUSH1 0xE0 SHL DUP2 MSTORE PUSH1 0x4 ADD PUSH1 0x20 PUSH1 0x40 MLOAD DUP1 DUP4 SUB DUP2 DUP7 GAS STATICCALL ISZERO DUP1 ISZERO PUSH2 0x125A JUMPI RETURNDATASIZE PUSH1 0x0 DUP1 RETURNDATACOPY RETURNDATASIZE PUSH1 0x0 REVERT JUMPDEST POP POP POP POP PUSH1 0x40 MLOAD RETURNDATASIZE PUSH1 0x1F NOT PUSH1 0x1F DUP3 ADD AND DUP3 ADD DUP1 PUSH1 0x40 MSTORE POP DUP2 ADD SWAP1 PUSH2 0x127E SWAP2 SWAP1 PUSH2 0x1F45 JUMP JUMPDEST PUSH2 0x1B73 JUMP JUMPDEST PUSH1 0x40 MLOAD PUSH4 0x6EB1769F PUSH1 0xE1 SHL DUP2 MSTORE PUSH1 0x1 PUSH1 0x1 PUSH1 0xA0 SHL SUB DUP13 DUP2 AND PUSH1 0x4 DUP4 ADD MSTORE ADDRESS PUSH1 0x24 DUP4 ADD MSTORE SWAP2 SWAP3 POP PUSH2 0x12D9 SWAP2 DUP4 SWAP2 SWAP1 DUP6 AND SWAP1 PUSH4 0xDD62ED3E SWAP1 PUSH1 0x44 ADD PUSH1 0x20 PUSH1 0x40 MLOAD DUP1 DUP4 SUB DUP2 DUP7 GAS STATICCALL ISZERO DUP1 ISZERO PUSH2 0x125A JUMPI RETURNDATASIZE PUSH1 0x0 DUP1 RETURNDATACOPY RETURNDATASIZE PUSH1 0x0 REVERT JUMPDEST SWAP1 POP DUP1 PUSH2 0x12E7 JUMPI POP POP PUSH2 0x1579 JUMP JUMPDEST PUSH1 0x0 PUSH1 0x0 NOT DUP10 EQ PUSH2 0x13F5 JUMPI PUSH1 0x0 DUP4 PUSH1 0x1 PUSH1 0x1 PUSH1 0xA0 SHL SUB AND PUSH4 0x99530B06 PUSH1 0x40 MLOAD DUP2 PUSH4 0xFFFFFFFF AND PUSH1 0xE0 SHL DUP2 MSTORE PUSH1 0x4 ADD PUSH1 0x20 PUSH1 0x40 MLOAD DUP1 DUP4 SUB DUP2 DUP7 GAS STATICCALL ISZERO DUP1 ISZERO PUSH2 0x1332 JUMPI RETURNDATASIZE PUSH1 0x0 DUP1 RETURNDATACOPY RETURNDATASIZE PUSH1 0x0 REVERT JUMPDEST POP POP POP POP PUSH1 0x40 MLOAD RETURNDATASIZE PUSH1 0x1F NOT PUSH1 0x1F DUP3 ADD AND DUP3 ADD DUP1 PUSH1 0x40 MSTORE POP DUP2 ADD SWAP1 PUSH2 0x1356 SWAP2 SWAP1 PUSH2 0x1F45 JUMP JUMPDEST DUP5 PUSH1 0x1 PUSH1 0x1 PUSH1 0xA0 SHL SUB AND PUSH4 0x313CE567 PUSH1 0x40 MLOAD DUP2 PUSH4 0xFFFFFFFF AND PUSH1 0xE0 SHL DUP2 MSTORE PUSH1 0x4 ADD PUSH1 0x20 PUSH1 0x40 MLOAD DUP1 DUP4 SUB DUP2 DUP7 GAS STATICCALL ISZERO DUP1 ISZERO PUSH2 0x1394 JUMPI RETURNDATASIZE PUSH1 0x0 DUP1 RETURNDATACOPY RETURNDATASIZE PUSH1 0x0 REVERT JUMPDEST POP POP POP POP PUSH1 0x40 MLOAD RETURNDATASIZE PUSH1 0x1F NOT PUSH1 0x1F DUP3 ADD AND DUP3 ADD DUP1 PUSH1 0x40 MSTORE POP DUP2 ADD SWAP1 PUSH2 0x13B8 SWAP2 SWAP1 PUSH2 0x1F45 JUMP JUMPDEST PUSH2 0x13C3 SWAP1 PUSH1 0xA PUSH2 0x20C1 JUMP JUMPDEST PUSH2 0x13CD DUP10 DUP14 PUSH2 0x1FC6 JUMP JUMPDEST PUSH2 0x13D7 SWAP2 SWAP1 PUSH2 0x20CD JUMP JUMPDEST PUSH2 0x13E1 SWAP2 SWAP1 PUSH2 0x20EC JUMP JUMPDEST SWAP1 POP PUSH2 0x13ED DUP4 DUP3 PUSH2 0x1B73 JUMP JUMPDEST SWAP2 POP POP PUSH2 0x13F8 JUMP JUMPDEST POP DUP1 JUMPDEST PUSH1 0x40 MLOAD PUSH4 0x70A08231 PUSH1 0xE0 SHL DUP2 MSTORE ADDRESS PUSH1 0x4 DUP3 ADD MSTORE PUSH1 0x0 SWAP1 PUSH1 0x1 PUSH1 0x1 PUSH1 0xA0 SHL SUB DUP6 AND SWAP1 PUSH4 0x70A08231 SWAP1 PUSH1 0x24 ADD PUSH1 0x20 PUSH1 0x40 MLOAD DUP1 DUP4 SUB DUP2 DUP7 GAS STATICCALL ISZERO DUP1 ISZERO PUSH2 0x143F JUMPI RETURNDATASIZE PUSH1 0x0 DUP1 RETURNDATACOPY RETURNDATASIZE PUSH1 0x0 REVERT JUMPDEST POP POP POP POP PUSH1 0x40 MLOAD RETURNDATASIZE PUSH1 0x1F NOT PUSH1 0x1F DUP3 ADD AND DUP3 ADD DUP1 PUSH1 0x40 MSTORE POP DUP2 ADD SWAP1 PUSH2 0x1463 SWAP2 SWAP1 PUSH2 0x1F45 JUMP JUMPDEST SWAP1 POP PUSH2 0x1471 DUP5 DUP14 ADDRESS DUP6 PUSH2 0x1B05 JUMP JUMPDEST PUSH1 0x40 MLOAD PUSH3 0x7B8A67 PUSH1 0xE1 SHL DUP2 MSTORE PUSH1 0x4 DUP2 ADD DUP4 SWAP1 MSTORE PUSH1 0x1 PUSH1 0x1 PUSH1 0xA0 SHL SUB DUP13 DUP2 AND PUSH1 0x24 DUP4 ADD MSTORE DUP6 AND SWAP1 PUSH3 0xF714CE SWAP1 PUSH1 0x44 ADD PUSH1 0x20 PUSH1 0x40 MLOAD DUP1 DUP4 SUB DUP2 PUSH1 0x0 DUP8 GAS CALL ISZERO DUP1 ISZERO PUSH2 0x14BE JUMPI RETURNDATASIZE PUSH1 0x0 DUP1 RETURNDATACOPY RETURNDATASIZE PUSH1 0x0 REVERT JUMPDEST POP POP POP POP PUSH1 0x40 MLOAD RETURNDATASIZE PUSH1 0x1F NOT PUSH1 0x1F DUP3 ADD AND DUP3 ADD DUP1 PUSH1 0x40 MSTORE POP DUP2 ADD SWAP1 PUSH2 0x14E2 SWAP2 SWAP1 PUSH2 0x1F45 JUMP JUMPDEST PUSH2 0x14EC SWAP1 DUP9 PUSH2 0x210E JUMP JUMPDEST PUSH1 0x40 MLOAD PUSH4 0x70A08231 PUSH1 0xE0 SHL DUP2 MSTORE ADDRESS PUSH1 0x4 DUP3 ADD MSTORE SWAP1 SWAP8 POP PUSH1 0x0 SWAP1 PUSH1 0x1 PUSH1 0x1 PUSH1 0xA0 SHL SUB DUP7 AND SWAP1 PUSH4 0x70A08231 SWAP1 PUSH1 0x24 ADD PUSH1 0x20 PUSH1 0x40 MLOAD DUP1 DUP4 SUB DUP2 DUP7 GAS STATICCALL ISZERO DUP1 ISZERO PUSH2 0x1536 JUMPI RETURNDATASIZE PUSH1 0x0 DUP1 RETURNDATACOPY RETURNDATASIZE PUSH1 0x0 REVERT JUMPDEST POP POP POP POP PUSH1 0x40 MLOAD RETURNDATASIZE PUSH1 0x1F NOT PUSH1 0x1F DUP3 ADD AND DUP3 ADD DUP1 PUSH1 0x40 MSTORE POP DUP2 ADD SWAP1 PUSH2 0x155A SWAP2 SWAP1 PUSH2 0x1F45 JUMP JUMPDEST SWAP1 POP DUP2 DUP2 GT ISZERO PUSH2 0x1573 JUMPI PUSH2 0x1573 DUP6 DUP15 PUSH2 0xF9E DUP6 DUP6 PUSH2 0x1FC6 JUMP JUMPDEST POP POP POP POP POP JUMPDEST DUP1 PUSH2 0x1583 DUP2 PUSH2 0x2126 JUMP JUMPDEST SWAP2 POP POP PUSH2 0x1113 JUMP JUMPDEST POP POP SWAP7 SWAP6 POP POP POP POP POP POP JUMP JUMPDEST PUSH1 0x1 DUP1 SLOAD PUSH1 0x40 MLOAD PUSH4 0xF9C7BBA5 PUSH1 0xE0 SHL DUP2 MSTORE PUSH1 0x1 PUSH1 0x1 PUSH1 0xA0 SHL SUB DUP9 DUP2 AND PUSH1 0x4 DUP4 ADD MSTORE PUSH1 0x0 SWAP4 DUP5 SWAP4 SWAP1 SWAP3 SWAP2 AND SWAP1 PUSH4 0xF9C7BBA5 SWAP1 PUSH1 0x24 ADD PUSH1 0x20 PUSH1 0x40 MLOAD DUP1 DUP4 SUB DUP2 DUP7 GAS STATICCALL ISZERO DUP1 ISZERO PUSH2 0x15E8 JUMPI RETURNDATASIZE PUSH1 0x0 DUP1 RETURNDATACOPY RETURNDATASIZE PUSH1 0x0 REVERT JUMPDEST POP POP POP POP PUSH1 0x40 MLOAD RETURNDATASIZE PUSH1 0x1F NOT PUSH1 0x1F DUP3 ADD AND DUP3 ADD DUP1 PUSH1 0x40 MSTORE POP DUP2 ADD SWAP1 PUSH2 0x160C SWAP2 SWAP1 PUSH2 0x1F45 JUMP JUMPDEST PUSH2 0x1616 SWAP2 SWAP1 PUSH2 0x1FC6 JUMP JUMPDEST SWAP1 POP DUP5 ISZERO DUP1 PUSH2 0x1623 JUMPI POP DUP1 ISZERO JUMPDEST ISZERO PUSH2 0x1632 JUMPI PUSH1 0x0 SWAP2 POP POP PUSH2 0x2DC JUMP JUMPDEST PUSH1 0x1 SLOAD PUSH1 0x40 MLOAD PUSH4 0x3DDFE34F PUSH1 0xE1 SHL DUP2 MSTORE PUSH1 0x1 PUSH1 0x1 PUSH1 0xA0 SHL SUB DUP10 DUP2 AND PUSH1 0x4 DUP4 ADD MSTORE PUSH1 0x24 DUP3 ADD DUP5 SWAP1 MSTORE PUSH1 0x0 SWAP3 AND SWAP1 PUSH4 0x7BBFC69E SWAP1 PUSH1 0x44 ADD PUSH1 0x20 PUSH1 0x40 MLOAD DUP1 DUP4 SUB DUP2 DUP7 GAS STATICCALL ISZERO DUP1 ISZERO PUSH2 0x1684 JUMPI RETURNDATASIZE PUSH1 0x0 DUP1 RETURNDATACOPY RETURNDATASIZE PUSH1 0x0 REVERT JUMPDEST POP POP POP POP PUSH1 0x40 MLOAD RETURNDATASIZE PUSH1 0x1F NOT PUSH1 0x1F DUP3 ADD AND DUP3 ADD DUP1 PUSH1 0x40 MSTORE POP DUP2 ADD SWAP1 PUSH2 0x16A8 SWAP2 SWAP1 PUSH2 0x1F93 JUMP JUMPDEST SWAP1 POP PUSH1 0x0 PUSH2 0x177E DUP8 DUP4 PUSH1 0x1 PUSH1 0x1 PUSH1 0xA0 SHL SUB AND PUSH4 0x1E1D114 PUSH1 0x40 MLOAD DUP2 PUSH4 0xFFFFFFFF AND PUSH1 0xE0 SHL DUP2 MSTORE PUSH1 0x4 ADD PUSH1 0x20 PUSH1 0x40 MLOAD DUP1 DUP4 SUB DUP2 DUP7 GAS STATICCALL ISZERO DUP1 ISZERO PUSH2 0x16EE JUMPI RETURNDATASIZE PUSH1 0x0 DUP1 RETURNDATACOPY RETURNDATASIZE PUSH1 0x0 REVERT JUMPDEST POP POP POP POP PUSH1 0x40 MLOAD RETURNDATASIZE PUSH1 0x1F NOT PUSH1 0x1F DUP3 ADD AND DUP3 ADD DUP1 PUSH1 0x40 MSTORE POP DUP2 ADD SWAP1 PUSH2 0x1712 SWAP2 SWAP1 PUSH2 0x1F45 JUMP JUMPDEST DUP5 PUSH1 0x1 PUSH1 0x1 PUSH1 0xA0 SHL SUB AND PUSH4 0xECF70858 PUSH1 0x40 MLOAD DUP2 PUSH4 0xFFFFFFFF AND PUSH1 0xE0 SHL DUP2 MSTORE PUSH1 0x4 ADD PUSH1 0x20 PUSH1 0x40 MLOAD DUP1 DUP4 SUB DUP2 DUP7 GAS STATICCALL ISZERO DUP1 ISZERO PUSH2 0x1750 JUMPI RETURNDATASIZE PUSH1 0x0 DUP1 RETURNDATACOPY RETURNDATASIZE PUSH1 0x0 REVERT JUMPDEST POP POP POP POP PUSH1 0x40 MLOAD RETURNDATASIZE PUSH1 0x1F NOT PUSH1 0x1F DUP3 ADD AND DUP3 ADD DUP1 PUSH1 0x40 MSTORE POP DUP2 ADD SWAP1 PUSH2 0x1774 SWAP2 SWAP1 PUSH2 0x1F45 JUMP JUMPDEST PUSH2 0x127E SWAP2 SWAP1 PUSH2 0x1FC6 JUMP JUMPDEST PUSH1 0x40 MLOAD PUSH4 0x70A08231 PUSH1 0xE0 SHL DUP2 MSTORE ADDRESS PUSH1 0x4 DUP3 ADD MSTORE SWAP1 SWAP2 POP PUSH1 0x0 SWAP1 PUSH1 0x1 PUSH1 0x1 PUSH1 0xA0 SHL SUB DUP12 AND SWAP1 PUSH4 0x70A08231 SWAP1 PUSH1 0x24 ADD PUSH1 0x20 PUSH1 0x40 MLOAD DUP1 DUP4 SUB DUP2 DUP7 GAS STATICCALL ISZERO DUP1 ISZERO PUSH2 0x17C8 JUMPI RETURNDATASIZE PUSH1 0x0 DUP1 RETURNDATACOPY RETURNDATASIZE PUSH1 0x0 REVERT JUMPDEST POP POP POP POP PUSH1 0x40 MLOAD RETURNDATASIZE PUSH1 0x1F NOT PUSH1 0x1F DUP3 ADD AND DUP3 ADD DUP1 PUSH1 0x40 MSTORE POP DUP2 ADD SWAP1 PUSH2 0x17EC SWAP2 SWAP1 PUSH2 0x1F45 JUMP JUMPDEST SWAP1 POP PUSH2 0x180A DUP11 DUP11 ADDRESS DUP6 DUP12 PUSH2 0x1805 DUP13 PUSH2 0x127E PUSH1 0x1 DUP14 PUSH2 0x1FC6 JUMP JUMPDEST PUSH2 0x107B JUMP JUMPDEST POP PUSH1 0x40 MLOAD PUSH4 0x70A08231 PUSH1 0xE0 SHL DUP2 MSTORE ADDRESS PUSH1 0x4 DUP3 ADD MSTORE PUSH1 0x0 SWAP1 PUSH1 0x1 PUSH1 0x1 PUSH1 0xA0 SHL SUB DUP13 AND SWAP1 PUSH4 0x70A08231 SWAP1 PUSH1 0x24 ADD PUSH1 0x20 PUSH1 0x40 MLOAD DUP1 DUP4 SUB DUP2 DUP7 GAS STATICCALL ISZERO DUP1 ISZERO PUSH2 0x1852 JUMPI RETURNDATASIZE PUSH1 0x0 DUP1 RETURNDATACOPY RETURNDATASIZE PUSH1 0x0 REVERT JUMPDEST POP POP POP POP PUSH1 0x40 MLOAD RETURNDATASIZE PUSH1 0x1F NOT PUSH1 0x1F DUP3 ADD AND DUP3 ADD DUP1 PUSH1 0x40 MSTORE POP DUP2 ADD SWAP1 PUSH2 0x1876 SWAP2 SWAP1 PUSH2 0x1F45 JUMP JUMPDEST SWAP1 POP DUP2 DUP2 GT PUSH2 0x18B9 JUMPI PUSH1 0x40 MLOAD PUSH3 0x461BCD PUSH1 0xE5 SHL DUP2 MSTORE PUSH1 0x20 PUSH1 0x4 DUP3 ADD MSTORE PUSH1 0xF PUSH1 0x24 DUP3 ADD MSTORE PUSH15 0x1DDA5D1A191C985DC819985A5B1959 PUSH1 0x8A SHL PUSH1 0x44 DUP3 ADD MSTORE PUSH1 0x64 ADD PUSH2 0x39A JUMP JUMPDEST PUSH2 0x18CF DUP12 ADDRESS DUP13 PUSH2 0x18C9 DUP7 DUP7 PUSH2 0x1FC6 JUMP JUMPDEST DUP10 PUSH2 0xC15 JUMP JUMPDEST POP PUSH1 0x40 MLOAD PUSH4 0x70A08231 PUSH1 0xE0 SHL DUP2 MSTORE ADDRESS PUSH1 0x4 DUP3 ADD MSTORE PUSH1 0x0 SWAP1 PUSH1 0x1 PUSH1 0x1 PUSH1 0xA0 SHL SUB DUP14 AND SWAP1 PUSH4 0x70A08231 SWAP1 PUSH1 0x24 ADD PUSH1 0x20 PUSH1 0x40 MLOAD DUP1 DUP4 SUB DUP2 DUP7 GAS STATICCALL ISZERO DUP1 ISZERO PUSH2 0x1917 JUMPI RETURNDATASIZE PUSH1 0x0 DUP1 RETURNDATACOPY RETURNDATASIZE PUSH1 0x0 REVERT JUMPDEST POP POP POP POP PUSH1 0x40 MLOAD RETURNDATASIZE PUSH1 0x1F NOT PUSH1 0x1F DUP3 ADD AND DUP3 ADD DUP1 PUSH1 0x40 MSTORE POP DUP2 ADD SWAP1 PUSH2 0x193B SWAP2 SWAP1 PUSH2 0x1F45 JUMP JUMPDEST SWAP1 POP DUP1 DUP3 GT PUSH2 0x197D JUMPI PUSH1 0x40 MLOAD PUSH3 0x461BCD PUSH1 0xE5 SHL DUP2 MSTORE PUSH1 0x20 PUSH1 0x4 DUP3 ADD MSTORE PUSH1 0xE PUSH1 0x24 DUP3 ADD MSTORE PUSH14 0x19195C1BDCDA5D0819985A5B1959 PUSH1 0x92 SHL PUSH1 0x44 DUP3 ADD MSTORE PUSH1 0x64 ADD PUSH2 0x39A JUMP JUMPDEST PUSH2 0x1987 DUP2 DUP4 PUSH2 0x1FC6 JUMP JUMPDEST SWAP7 POP DUP7 PUSH2 0x1994 DUP5 DUP5 PUSH2 0x1FC6 JUMP JUMPDEST GT ISZERO PUSH2 0x19A9 JUMPI PUSH2 0x19A9 DUP13 DUP13 PUSH2 0xF9E DUP7 DUP6 PUSH2 0x1FC6 JUMP JUMPDEST POP POP POP POP POP POP SWAP6 SWAP5 POP POP POP POP POP JUMP JUMPDEST DUP1 ISZERO DUP1 PUSH2 0x1A32 JUMPI POP PUSH1 0x40 MLOAD PUSH4 0x6EB1769F PUSH1 0xE1 SHL DUP2 MSTORE ADDRESS PUSH1 0x4 DUP3 ADD MSTORE PUSH1 0x1 PUSH1 0x1 PUSH1 0xA0 SHL SUB DUP4 DUP2 AND PUSH1 0x24 DUP4 ADD MSTORE DUP5 AND SWAP1 PUSH4 0xDD62ED3E SWAP1 PUSH1 0x44 ADD PUSH1 0x20 PUSH1 0x40 MLOAD DUP1 DUP4 SUB DUP2 DUP7 GAS STATICCALL ISZERO DUP1 ISZERO PUSH2 0x1A0C JUMPI RETURNDATASIZE PUSH1 0x0 DUP1 RETURNDATACOPY RETURNDATASIZE PUSH1 0x0 REVERT JUMPDEST POP POP POP POP PUSH1 0x40 MLOAD RETURNDATASIZE PUSH1 0x1F NOT PUSH1 0x1F DUP3 ADD AND DUP3 ADD DUP1 PUSH1 0x40 MSTORE POP DUP2 ADD SWAP1 PUSH2 0x1A30 SWAP2 SWAP1 PUSH2 0x1F45 JUMP JUMPDEST ISZERO JUMPDEST PUSH2 0x1A9D JUMPI PUSH1 0x40 MLOAD PUSH3 0x461BCD PUSH1 0xE5 SHL DUP2 MSTORE PUSH1 0x20 PUSH1 0x4 DUP3 ADD MSTORE PUSH1 0x36 PUSH1 0x24 DUP3 ADD MSTORE PUSH32 0x5361666545524332303A20617070726F76652066726F6D206E6F6E2D7A65726F PUSH1 0x44 DUP3 ADD MSTORE PUSH22 0x20746F206E6F6E2D7A65726F20616C6C6F77616E6365 PUSH1 0x50 SHL PUSH1 0x64 DUP3 ADD MSTORE PUSH1 0x84 ADD PUSH2 0x39A JUMP JUMPDEST PUSH1 0x40 MLOAD PUSH1 0x1 PUSH1 0x1 PUSH1 0xA0 SHL SUB DUP4 AND PUSH1 0x24 DUP3 ADD MSTORE PUSH1 0x44 DUP2 ADD DUP3 SWAP1 MSTORE PUSH2 0x1B00 SWAP1 DUP5 SWAP1 PUSH4 0x95EA7B3 PUSH1 0xE0 SHL SWAP1 PUSH1 0x64 ADD JUMPDEST PUSH1 0x40 DUP1 MLOAD PUSH1 0x1F NOT DUP2 DUP5 SUB ADD DUP2 MSTORE SWAP2 SWAP1 MSTORE PUSH1 0x20 DUP2 ADD DUP1 MLOAD PUSH1 0x1 PUSH1 0x1 PUSH1 0xE0 SHL SUB AND PUSH1 0x1 PUSH1 0x1 PUSH1 0xE0 SHL SUB NOT SWAP1 SWAP4 AND SWAP3 SWAP1 SWAP3 OR SWAP1 SWAP2 MSTORE PUSH2 0x1B89 JUMP JUMPDEST POP POP POP JUMP JUMPDEST PUSH1 0x40 MLOAD PUSH1 0x1 PUSH1 0x1 PUSH1 0xA0 SHL SUB DUP1 DUP6 AND PUSH1 0x24 DUP4 ADD MSTORE DUP4 AND PUSH1 0x44 DUP3 ADD MSTORE PUSH1 0x64 DUP2 ADD DUP3 SWAP1 MSTORE PUSH2 0x1B3D SWAP1 DUP6 SWAP1 PUSH4 0x23B872DD PUSH1 0xE0 SHL SWAP1 PUSH1 0x84 ADD PUSH2 0x1AC9 JUMP JUMPDEST POP POP POP POP JUMP JUMPDEST PUSH1 0x40 MLOAD PUSH1 0x1 PUSH1 0x1 PUSH1 0xA0 SHL SUB DUP4 AND PUSH1 0x24 DUP3 ADD MSTORE PUSH1 0x44 DUP2 ADD DUP3 SWAP1 MSTORE PUSH2 0x1B00 SWAP1 DUP5 SWAP1 PUSH4 0xA9059CBB PUSH1 0xE0 SHL SWAP1 PUSH1 0x64 ADD PUSH2 0x1AC9 JUMP JUMPDEST PUSH1 0x0 DUP2 DUP4 LT PUSH2 0x1B82 JUMPI DUP2 PUSH2 0x367 JUMP JUMPDEST POP SWAP1 SWAP2 SWAP1 POP JUMP JUMPDEST PUSH1 0x0 PUSH2 0x1BDE DUP3 PUSH1 0x40 MLOAD DUP1 PUSH1 0x40 ADD PUSH1 0x40 MSTORE DUP1 PUSH1 0x20 DUP2 MSTORE PUSH1 0x20 ADD PUSH32 0x5361666545524332303A206C6F772D6C6576656C2063616C6C206661696C6564 DUP2 MSTORE POP DUP6 PUSH1 0x1 PUSH1 0x1 PUSH1 0xA0 SHL SUB AND PUSH2 0x1C5B SWAP1 SWAP3 SWAP2 SWAP1 PUSH4 0xFFFFFFFF AND JUMP JUMPDEST DUP1 MLOAD SWAP1 SWAP2 POP ISZERO PUSH2 0x1B00 JUMPI DUP1 DUP1 PUSH1 0x20 ADD SWAP1 MLOAD DUP2 ADD SWAP1 PUSH2 0x1BFC SWAP2 SWAP1 PUSH2 0x2141 JUMP JUMPDEST PUSH2 0x1B00 JUMPI PUSH1 0x40 MLOAD PUSH3 0x461BCD PUSH1 0xE5 SHL DUP2 MSTORE PUSH1 0x20 PUSH1 0x4 DUP3 ADD MSTORE PUSH1 0x2A PUSH1 0x24 DUP3 ADD MSTORE PUSH32 0x5361666545524332303A204552433230206F7065726174696F6E20646964206E PUSH1 0x44 DUP3 ADD MSTORE PUSH10 0x1BDD081CDD58D8D95959 PUSH1 0xB2 SHL PUSH1 0x64 DUP3 ADD MSTORE PUSH1 0x84 ADD PUSH2 0x39A JUMP JUMPDEST PUSH1 0x60 PUSH2 0x450 DUP5 DUP5 PUSH1 0x0 DUP6 DUP6 DUP5 EXTCODESIZE PUSH2 0x1CB4 JUMPI PUSH1 0x40 MLOAD PUSH3 0x461BCD PUSH1 0xE5 SHL DUP2 MSTORE PUSH1 0x20 PUSH1 0x4 DUP3 ADD MSTORE PUSH1 0x1D PUSH1 0x24 DUP3 ADD MSTORE PUSH32 0x416464726573733A2063616C6C20746F206E6F6E2D636F6E7472616374000000 PUSH1 0x44 DUP3 ADD MSTORE PUSH1 0x64 ADD PUSH2 0x39A JUMP JUMPDEST PUSH1 0x0 DUP1 DUP7 PUSH1 0x1 PUSH1 0x1 PUSH1 0xA0 SHL SUB AND DUP6 DUP8 PUSH1 0x40 MLOAD PUSH2 0x1CD0 SWAP2 SWAP1 PUSH2 0x218F JUMP JUMPDEST PUSH1 0x0 PUSH1 0x40 MLOAD DUP1 DUP4 SUB DUP2 DUP6 DUP8 GAS CALL SWAP3 POP POP POP RETURNDATASIZE DUP1 PUSH1 0x0 DUP2 EQ PUSH2 0x1D0D JUMPI PUSH1 0x40 MLOAD SWAP2 POP PUSH1 0x1F NOT PUSH1 0x3F RETURNDATASIZE ADD AND DUP3 ADD PUSH1 0x40 MSTORE RETURNDATASIZE DUP3 MSTORE RETURNDATASIZE PUSH1 0x0 PUSH1 0x20 DUP5 ADD RETURNDATACOPY PUSH2 0x1D12 JUMP JUMPDEST PUSH1 0x60 SWAP2 POP JUMPDEST POP SWAP2 POP SWAP2 POP PUSH2 0x1D22 DUP3 DUP3 DUP7 PUSH2 0x1D2D JUMP JUMPDEST SWAP8 SWAP7 POP POP POP POP POP POP POP JUMP JUMPDEST PUSH1 0x60 DUP4 ISZERO PUSH2 0x1D3C JUMPI POP DUP2 PUSH2 0x453 JUMP JUMPDEST DUP3 MLOAD ISZERO PUSH2 0x1D4C JUMPI DUP3 MLOAD DUP1 DUP5 PUSH1 0x20 ADD REVERT JUMPDEST DUP2 PUSH1 0x40 MLOAD PUSH3 0x461BCD PUSH1 0xE5 SHL DUP2 MSTORE PUSH1 0x4 ADD PUSH2 0x39A SWAP2 SWAP1 PUSH2 0x21AB JUMP JUMPDEST PUSH1 0x1 PUSH1 0x1 PUSH1 0xA0 SHL SUB DUP2 AND DUP2 EQ PUSH2 0xB4F JUMPI PUSH1 0x0 DUP1 REVERT JUMPDEST PUSH1 0x0 DUP1 PUSH1 0x0 DUP1 PUSH1 0x80 DUP6 DUP8 SUB SLT ISZERO PUSH2 0x1D91 JUMPI PUSH1 0x0 DUP1 REVERT JUMPDEST DUP5 CALLDATALOAD PUSH2 0x1D9C DUP2 PUSH2 0x1D66 JUMP JUMPDEST SWAP4 POP PUSH1 0x20 DUP6 ADD CALLDATALOAD PUSH2 0x1DAC DUP2 PUSH2 0x1D66 JUMP JUMPDEST SWAP4 SWAP7 SWAP4 SWAP6 POP POP POP POP PUSH1 0x40 DUP3 ADD CALLDATALOAD SWAP2 PUSH1 0x60 ADD CALLDATALOAD SWAP1 JUMP JUMPDEST PUSH1 0x0 DUP1 PUSH1 0x40 DUP4 DUP6 SUB SLT ISZERO PUSH2 0x1DD4 JUMPI PUSH1 0x0 DUP1 REVERT JUMPDEST DUP3 CALLDATALOAD PUSH2 0x1DDF DUP2 PUSH2 0x1D66 JUMP JUMPDEST SWAP2 POP PUSH1 0x20 DUP4 ADD CALLDATALOAD PUSH2 0x1DEF DUP2 PUSH2 0x1D66 JUMP JUMPDEST DUP1 SWAP2 POP POP SWAP3 POP SWAP3 SWAP1 POP JUMP JUMPDEST PUSH1 0x0 DUP1 PUSH1 0x0 DUP1 PUSH1 0x0 PUSH1 0xA0 DUP7 DUP9 SUB SLT ISZERO PUSH2 0x1E12 JUMPI PUSH1 0x0 DUP1 REVERT JUMPDEST DUP6 CALLDATALOAD PUSH2 0x1E1D DUP2 PUSH2 0x1D66 JUMP JUMPDEST SWAP5 POP PUSH1 0x20 DUP7 ADD CALLDATALOAD PUSH2 0x1E2D DUP2 PUSH2 0x1D66 JUMP JUMPDEST SWAP5 SWAP8 SWAP5 SWAP7 POP POP POP POP PUSH1 0x40 DUP4 ADD CALLDATALOAD SWAP3 PUSH1 0x60 DUP2 ADD CALLDATALOAD SWAP3 PUSH1 0x80 SWAP1 SWAP2 ADD CALLDATALOAD SWAP2 POP JUMP JUMPDEST PUSH1 0x0 DUP1 PUSH1 0x40 DUP4 DUP6 SUB SLT ISZERO PUSH2 0x1E5E JUMPI PUSH1 0x0 DUP1 REVERT JUMPDEST DUP3 CALLDATALOAD PUSH2 0x1E69 DUP2 PUSH2 0x1D66 JUMP JUMPDEST SWAP5 PUSH1 0x20 SWAP4 SWAP1 SWAP4 ADD CALLDATALOAD SWAP4 POP POP POP JUMP JUMPDEST PUSH1 0x0 DUP1 PUSH1 0x0 PUSH1 0x60 DUP5 DUP7 SUB SLT ISZERO PUSH2 0x1E8C JUMPI PUSH1 0x0 DUP1 REVERT JUMPDEST DUP4 CALLDATALOAD PUSH2 0x1E97 DUP2 PUSH2 0x1D66 JUMP JUMPDEST SWAP3 POP PUSH1 0x20 DUP5 ADD CALLDATALOAD PUSH2 0x1EA7 DUP2 PUSH2 0x1D66 JUMP JUMPDEST SWAP3 SWAP6 SWAP3 SWAP5 POP POP POP PUSH1 0x40 SWAP2 SWAP1 SWAP2 ADD CALLDATALOAD SWAP1 JUMP JUMPDEST PUSH1 0x0 PUSH1 0x20 DUP3 DUP5 SUB SLT ISZERO PUSH2 0x1ECA JUMPI PUSH1 0x0 DUP1 REVERT JUMPDEST DUP2 CALLDATALOAD PUSH2 0x453 DUP2 PUSH2 0x1D66 JUMP JUMPDEST PUSH1 0x0 DUP1 PUSH1 0x0 PUSH1 0x60 DUP5 DUP7 SUB SLT ISZERO PUSH2 0x1EEA JUMPI PUSH1 0x0 DUP1 REVERT JUMPDEST DUP4 CALLDATALOAD PUSH2 0x1EF5 DUP2 PUSH2 0x1D66 JUMP JUMPDEST SWAP6 PUSH1 0x20 DUP6 ADD CALLDATALOAD SWAP6 POP PUSH1 0x40 SWAP1 SWAP5 ADD CALLDATALOAD SWAP4 SWAP3 POP POP POP JUMP JUMPDEST PUSH1 0x0 DUP1 PUSH1 0x0 DUP1 PUSH1 0x80 DUP6 DUP8 SUB SLT ISZERO PUSH2 0x1F20 JUMPI PUSH1 0x0 DUP1 REVERT JUMPDEST DUP5 CALLDATALOAD PUSH2 0x1F2B DUP2 PUSH2 0x1D66 JUMP JUMPDEST SWAP7 PUSH1 0x20 DUP7 ADD CALLDATALOAD SWAP7 POP PUSH1 0x40 DUP7 ADD CALLDATALOAD SWAP6 PUSH1 0x60 ADD CALLDATALOAD SWAP5 POP SWAP3 POP POP POP JUMP JUMPDEST PUSH1 0x0 PUSH1 0x20 DUP3 DUP5 SUB SLT ISZERO PUSH2 0x1F57 JUMPI PUSH1 0x0 DUP1 REVERT JUMPDEST POP MLOAD SWAP2 SWAP1 POP JUMP JUMPDEST PUSH1 0x20 DUP1 DUP3 MSTORE DUP2 DUP2 ADD MSTORE PUSH32 0x4F776E61626C653A2063616C6C6572206973206E6F7420746865206F776E6572 PUSH1 0x40 DUP3 ADD MSTORE PUSH1 0x60 ADD SWAP1 JUMP JUMPDEST PUSH1 0x0 PUSH1 0x20 DUP3 DUP5 SUB SLT ISZERO PUSH2 0x1FA5 JUMPI PUSH1 0x0 DUP1 REVERT JUMPDEST DUP2 MLOAD PUSH2 0x453 DUP2 PUSH2 0x1D66 JUMP JUMPDEST PUSH4 0x4E487B71 PUSH1 0xE0 SHL PUSH1 0x0 MSTORE PUSH1 0x11 PUSH1 0x4 MSTORE PUSH1 0x24 PUSH1 0x0 REVERT JUMPDEST PUSH1 0x0 DUP3 DUP3 LT ISZERO PUSH2 0x1FD8 JUMPI PUSH2 0x1FD8 PUSH2 0x1FB0 JUMP JUMPDEST POP SUB SWAP1 JUMP JUMPDEST PUSH1 0x1 DUP2 DUP2 JUMPDEST DUP1 DUP6 GT ISZERO PUSH2 0x2018 JUMPI DUP2 PUSH1 0x0 NOT DIV DUP3 GT ISZERO PUSH2 0x1FFE JUMPI PUSH2 0x1FFE PUSH2 0x1FB0 JUMP JUMPDEST DUP1 DUP6 AND ISZERO PUSH2 0x200B JUMPI SWAP2 DUP2 MUL SWAP2 JUMPDEST SWAP4 DUP5 SHR SWAP4 SWAP1 DUP1 MUL SWAP1 PUSH2 0x1FE2 JUMP JUMPDEST POP SWAP3 POP SWAP3 SWAP1 POP JUMP JUMPDEST PUSH1 0x0 DUP3 PUSH2 0x202F JUMPI POP PUSH1 0x1 PUSH2 0x36A JUMP JUMPDEST DUP2 PUSH2 0x203C JUMPI POP PUSH1 0x0 PUSH2 0x36A JUMP JUMPDEST DUP2 PUSH1 0x1 DUP2 EQ PUSH2 0x2052 JUMPI PUSH1 0x2 DUP2 EQ PUSH2 0x205C JUMPI PUSH2 0x2078 JUMP JUMPDEST PUSH1 0x1 SWAP2 POP POP PUSH2 0x36A JUMP JUMPDEST PUSH1 0xFF DUP5 GT ISZERO PUSH2 0x206D JUMPI PUSH2 0x206D PUSH2 0x1FB0 JUMP JUMPDEST POP POP PUSH1 0x1 DUP3 SHL PUSH2 0x36A JUMP JUMPDEST POP PUSH1 0x20 DUP4 LT PUSH2 0x133 DUP4 LT AND PUSH1 0x4E DUP5 LT PUSH1 0xB DUP5 LT AND OR ISZERO PUSH2 0x209B JUMPI POP DUP2 DUP2 EXP PUSH2 0x36A JUMP JUMPDEST PUSH2 0x20A5 DUP4 DUP4 PUSH2 0x1FDD JUMP JUMPDEST DUP1 PUSH1 0x0 NOT DIV DUP3 GT ISZERO PUSH2 0x20B9 JUMPI PUSH2 0x20B9 PUSH2 0x1FB0 JUMP JUMPDEST MUL SWAP4 SWAP3 POP POP POP JUMP JUMPDEST PUSH1 0x0 PUSH2 0x367 DUP4 DUP4 PUSH2 0x2020 JUMP JUMPDEST PUSH1 0x0 DUP2 PUSH1 0x0 NOT DIV DUP4 GT DUP3 ISZERO ISZERO AND ISZERO PUSH2 0x20E7 JUMPI PUSH2 0x20E7 PUSH2 0x1FB0 JUMP JUMPDEST POP MUL SWAP1 JUMP JUMPDEST PUSH1 0x0 DUP3 PUSH2 0x2109 JUMPI PUSH4 0x4E487B71 PUSH1 0xE0 SHL PUSH1 0x0 MSTORE PUSH1 0x12 PUSH1 0x4 MSTORE PUSH1 0x24 PUSH1 0x0 REVERT JUMPDEST POP DIV SWAP1 JUMP JUMPDEST PUSH1 0x0 DUP3 NOT DUP3 GT ISZERO PUSH2 0x2121 JUMPI PUSH2 0x2121 PUSH2 0x1FB0 JUMP JUMPDEST POP ADD SWAP1 JUMP JUMPDEST PUSH1 0x0 PUSH1 0x0 NOT DUP3 EQ ISZERO PUSH2 0x213A JUMPI PUSH2 0x213A PUSH2 0x1FB0 JUMP JUMPDEST POP PUSH1 0x1 ADD SWAP1 JUMP JUMPDEST PUSH1 0x0 PUSH1 0x20 DUP3 DUP5 SUB SLT ISZERO PUSH2 0x2153 JUMPI PUSH1 0x0 DUP1 REVERT JUMPDEST DUP2 MLOAD DUP1 ISZERO ISZERO DUP2 EQ PUSH2 0x453 JUMPI PUSH1 0x0 DUP1 REVERT JUMPDEST PUSH1 0x0 JUMPDEST DUP4 DUP2 LT ISZERO PUSH2 0x217E JUMPI DUP2 DUP2 ADD MLOAD DUP4 DUP3 ADD MSTORE PUSH1 0x20 ADD PUSH2 0x2166 JUMP JUMPDEST DUP4 DUP2 GT ISZERO PUSH2 0x1B3D JUMPI POP POP PUSH1 0x0 SWAP2 ADD MSTORE JUMP JUMPDEST PUSH1 0x0 DUP3 MLOAD PUSH2 0x21A1 DUP2 DUP5 PUSH1 0x20 DUP8 ADD PUSH2 0x2163 JUMP JUMPDEST SWAP2 SWAP1 SWAP2 ADD SWAP3 SWAP2 POP POP JUMP JUMPDEST PUSH1 0x20 DUP2 MSTORE PUSH1 0x0 DUP3 MLOAD DUP1 PUSH1 0x20 DUP5 ADD MSTORE PUSH2 0x21CA DUP2 PUSH1 0x40 DUP6 ADD PUSH1 0x20 DUP8 ADD PUSH2 0x2163 JUMP JUMPDEST PUSH1 0x1F ADD PUSH1 0x1F NOT AND SWAP2 SWAP1 SWAP2 ADD PUSH1 0x40 ADD SWAP3 SWAP2 POP POP JUMP INVALID LOG2 PUSH5 0x6970667358 0x22 SLT KECCAK256 0xC 0xEA RETURNDATACOPY 0xBE 0xC7 COINBASE XOR 0xBC 0x22 0xBC RETURN LOG0 GAS 0x4D 0xDE SWAP6 LOG4 DUP14 DUP6 PUSH25 0xB4AF0BF81C3CE642B1C9CDE064736F6C634300080A00330000 ",
  "sha1": "2a949a73d8f56a70821c9650cf7b24f7dea1bf48",
  "source": "// SPDX-License-Identifier: GPL-3.0\npragma solidity 0.8.10;\n\nimport {IERC20} from \"../openzeppelin-contracts/contracts/token/ERC20/IERC20.sol\";\nimport {SafeERC20} from \"../openzeppelin-contracts/contracts/token/ERC20/utils/SafeERC20.sol\";\nimport {Math} from \"../openzeppelin-contracts/contracts/utils/math/Math.sol\";\nimport {Ownable} from \"../openzeppelin-contracts/contracts/access/Ownable.sol\";\n\nimport {RegistryAPI, VaultAPI} from \"../interfaces/YearnAPI.sol\";\n\n/**\n * Adapted from the Yearn BaseRouter for Shapeshift's use case of a router that forward native vault tokens\n * to the caller and does not hold any funds or assets (vault tokens or other ERC20 tokens)\n */\ncontract ShapeShiftDAORouter is Ownable {\n    RegistryAPI public registry;\n\n    // ERC20 Unlimited Approvals (short-circuits VaultAPI.transferFrom)\n    uint256 constant UNLIMITED_APPROVAL = type(uint256).max;\n\n    // Sentinel values used to save gas on deposit/withdraw/migrate\n    // NOTE: UNLIMITED_APPROVAL == DEPOSIT_EVERYTHING == WITHDRAW_EVERYTHING == MIGRATE_EVERYTHING = MAX_VAULT_ID\n    uint256 constant DEPOSIT_EVERYTHING = type(uint256).max;\n    uint256 constant WITHDRAW_EVERYTHING = type(uint256).max;\n    uint256 constant MIGRATE_EVERYTHING = type(uint256).max;\n    uint256 constant MAX_VAULT_ID = type(uint256).max;\n\n    constructor(address yearnRegistry) {\n        // Recommended to use `v2.registry.ychad.eth`\n        registry = RegistryAPI(yearnRegistry);\n    }\n\n    /**\n     * @notice Used to update the yearn registry. The choice of registry is SECURITY SENSITIVE, so only the\n     * owner can update it.\n     * @param yearnRegistry The new registry address.\n     */\n    function setRegistry(address yearnRegistry) external onlyOwner() {\n        address currentYearnGovernanceAddress = registry.governance();\n        // In case you want to override the registry instead of re-deploying\n        registry = RegistryAPI(yearnRegistry);\n        // Make sure there's no change in governance\n        // NOTE: Also avoid bricking the router from setting a bad registry\n        require(\n            currentYearnGovernanceAddress == registry.governance(),\n            \"invalid registry\"\n        );\n    }\n\n    function numVaults(address token) external view returns (uint256) {\n        return registry.numVaults(token);\n    }\n\n    function vaults(address token, uint256 deploymentId)\n        external\n        view\n        returns (VaultAPI)\n    {\n        return registry.vaults(token, deploymentId);\n    }\n\n    function latestVault(address token) external view returns (VaultAPI) {\n        return registry.latestVault(token);\n    }\n\n    /**\n     * @notice Gets the balance of an account across all the vaults for a token.\n     * @param token Which ERC20 token to pull vault balances for\n     * @param account The address of the account to pull the balances for\n     * @return The current value, in token base units, of the shares held by the specified\n       account across all the vaults for the specified token.\n     */\n    function totalVaultBalance(address token, address account)\n        external\n        view\n        returns (uint256)\n    {\n        return this.totalVaultBalance(token, account, 0, MAX_VAULT_ID);\n    }\n\n    /**\n     * @notice Gets the balance of an account across certain vaults for a token.\n     * @param token Which ERC20 token to pull vault balances for\n     * @param account The address of the account to pull the balances for\n     * @param firstVaultId First vault id to include; 0 to start at the beginning\n     * @param lastVaultId Last vault id to include; `MAX_VAULT_ID` to include all vaults\n     * @return balance The current value, in token base units, of the shares held by the specified\n       account across all the specified vaults for the specified token.\n     */\n    function totalVaultBalance(\n        address token,\n        address account,\n        uint256 firstVaultId,\n        uint256 lastVaultId\n    ) external view returns (uint256 balance) {\n        require(firstVaultId <= lastVaultId);\n\n        uint256 _lastVaultId = lastVaultId;\n        if (_lastVaultId == MAX_VAULT_ID)\n            _lastVaultId = registry.numVaults(address(token)) - 1;\n\n        for (uint256 i = firstVaultId; i <= _lastVaultId; i++) {\n            VaultAPI vault = registry.vaults(token, i);\n            uint256 vaultTokenBalance = (vault.balanceOf(account) *\n                vault.pricePerShare()) / 10**vault.decimals();\n            balance += vaultTokenBalance;\n        }\n    }\n\n    /**\n     * @notice Returns the combined TVL for all the vaults for a specified token.\n     * @return assets The sum of all the assets managed by the vaults for the specified token.\n     */\n    function totalAssets(address token) external view returns (uint256) {\n        return this.totalAssets(token, 0, MAX_VAULT_ID);\n    }\n\n    /**\n     * @notice Returns the combined TVL for all the specified vaults for a specified token.\n     * @param firstVaultId First vault id to include; 0 to start at the beginning\n     * @param lastVaultId Last vault id to include; `MAX_VAULT_ID` to include all vaults\n     * @return assets The sum of all the assets managed by the vaults for the specified token.\n     */\n    function totalAssets(\n        address token,\n        uint256 firstVaultId,\n        uint256 lastVaultId\n    ) external view returns (uint256 assets) {\n        require(firstVaultId <= lastVaultId);\n\n        uint256 _lastVaultId = lastVaultId;\n        if (_lastVaultId == MAX_VAULT_ID)\n            _lastVaultId = registry.numVaults(address(token)) - 1;\n\n        for (uint256 i = firstVaultId; i <= _lastVaultId; i++) {\n            VaultAPI vault = registry.vaults(token, i);\n            assets += vault.totalAssets();\n        }\n    }\n\n    /**\n     * @notice Called to deposit the caller's tokens into the most-current vault, crediting the minted shares to recipient.\n     * @dev The caller must approve this contract to utilize the specified ERC20 or this call will revert.\n     * @param token Address of the ERC20 token being deposited\n     * @param recipient Address to receive the issued vault tokens\n     * @param amount Amount of tokens to deposit; tokens that cannot be deposited will be refunded. If `DEPOSIT_EVERYTHING`, just deposit everything.\n     * @return Total vault shares received by recipient\n     */\n    function deposit(\n        address token,\n        address recipient,\n        uint256 amount\n    ) external returns (uint256) {\n        return\n            _deposit(\n                IERC20(token),\n                _msgSender(),\n                recipient,\n                amount,\n                MAX_VAULT_ID\n            );\n    }\n\n    /**\n     * @notice Called to deposit the caller's tokens into a specific vault, crediting the minted shares to recipient.\n     * @dev The caller must approve this contract to utilize the specified ERC20 or this call will revert.\n     * @param token Address of the ERC20 token being deposited\n     * @param recipient Address to receive the issued vault tokens\n     * @param amount Amount of tokens to deposit; tokens that cannot be deposited will be refunded. If `DEPOSIT_EVERYTHING`, just deposit everything.\n     * @param vaultId Vault id to deposit into; pass `MAX_VAULT_ID` to deposit into the latest vault\n     * @return Total vault shares received by recipient\n     */\n    function deposit(\n        address token,\n        address recipient,\n        uint256 amount,\n        uint256 vaultId\n    ) external returns (uint256) {\n        return\n            _deposit(IERC20(token), _msgSender(), recipient, amount, vaultId);\n    }\n\n    /**\n     * @notice Called to deposit depositor's tokens into a specific vault, crediting the minted shares to recipient.\n     * @dev Depositor must approve this contract to utilize the specified ERC20 or this call will revert.\n     * @param token Address of the ERC20 token being deposited\n     * @param depositor Address to pull deposited funds from. SECURITY SENSITIVE.\n     * @param recipient Address to receive the issued vault tokens\n     * @param amount Amount of tokens to deposit; tokens that cannot be deposited will be refunded. If `DEPOSIT_EVERYTHING`, just deposit everything.\n     * @param vaultId Vault id to deposit into; pass `MAX_VAULT_ID` to deposit into the latest vault\n     * @return shares Total vault shares received by recipient\n     */\n    function _deposit(\n        IERC20 token,\n        address depositor,\n        address recipient,\n        uint256 amount,\n        uint256 vaultId\n    ) internal returns (uint256 shares) {\n        bool pullFunds = depositor != address(this);\n\n        VaultAPI vault;\n        if (vaultId == MAX_VAULT_ID) {\n            vault = registry.latestVault(address(token));\n        } else {\n            vault = registry.vaults(address(token), vaultId);\n        }\n\n        if (token.allowance(address(this), address(vault)) < amount) {\n            SafeERC20.safeApprove(token, address(vault), 0); // Avoid issues with some tokens requiring 0\n            SafeERC20.safeApprove(token, address(vault), UNLIMITED_APPROVAL); // Vaults are trusted\n        }\n\n        if (amount == DEPOSIT_EVERYTHING) amount = token.balanceOf(depositor);\n\n        if (pullFunds) {\n            uint256 beforeBal = token.balanceOf(address(this));\n            SafeERC20.safeTransferFrom(token, depositor, address(this), amount);\n\n            shares = vault.deposit(amount, recipient);\n\n            uint256 afterWithdrawBal = token.balanceOf(address(this));\n            if (afterWithdrawBal > beforeBal)\n                SafeERC20.safeTransfer(\n                    token,\n                    depositor,\n                    afterWithdrawBal - beforeBal\n                );\n        } else {\n            shares = vault.deposit(amount, recipient);\n        }\n    }\n\n    /**\n     * @notice Called to redeem the all of the caller's shares from underlying vault(s), with the proceeds distributed to recipient.\n     * @dev The caller must approve this contract to use their vault shares or this call will revert.\n     * @param token Address of the ERC20 token to withdraw from vaults\n     * @param recipient Address to receive the withdrawn tokens\n     * @return The number of tokens received by recipient.\n     */\n    function withdraw(address token, address recipient)\n        external\n        returns (uint256)\n    {\n        return\n            _withdraw(\n                IERC20(token),\n                _msgSender(),\n                recipient,\n                WITHDRAW_EVERYTHING,\n                0,\n                MAX_VAULT_ID\n            );\n    }\n\n    /**\n     * @notice Called to redeem the caller's shares from underlying vault(s), with the proceeds distributed to recipient.\n     * @dev The caller must approve this contract to use their vault shares or this call will revert.\n     * @param token Address of the ERC20 token to withdraw from vaults\n     * @param recipient Address to receive the withdrawn tokens\n     * @param amount Maximum number of tokens to withdraw from all vaults; actual withdrawal may be less. If `WITHDRAW_EVERYTHING`, just withdraw everything.\n     * @return The number of tokens received by recipient.\n     */\n    function withdraw(\n        address token,\n        address recipient,\n        uint256 amount\n    ) external returns (uint256) {\n        return\n            _withdraw(\n                IERC20(token),\n                _msgSender(),\n                recipient,\n                amount,\n                0,\n                MAX_VAULT_ID\n            );\n    }\n\n    /**\n     * @notice Called to redeem the caller's shares from underlying vault(s), with the proceeds distributed to recipient.\n     * @dev The caller must approve this contract to use their vault shares or this call will revert.\n     * @param token Address of the ERC20 token to withdraw from vaults\n     * @param recipient Address to receive the withdrawn tokens\n     * @param amount Maximum number of tokens to withdraw from all vaults; actual withdrawal may be less. If `WITHDRAW_EVERYTHING`, just withdraw everything.\n     * @param firstVaultId First vault id to pull from; 0 to start at the the beginning\n     * @param lastVaultId Last vault id to pull from; `MAX_VAULT_ID` to withdraw from all vaults\n     * @return The number of tokens received by recipient.\n     */\n    function withdraw(\n        address token,\n        address recipient,\n        uint256 amount,\n        uint256 firstVaultId,\n        uint256 lastVaultId\n    ) external returns (uint256) {\n        return\n            _withdraw(\n                IERC20(token),\n                _msgSender(),\n                recipient,\n                amount,\n                firstVaultId,\n                lastVaultId\n            );\n    }\n\n    /**\n     * @notice Called to redeem withdrawer's shares from underlying vault(s), with the proceeds distributed to recipient.\n     * @dev Withdrawer must approve this contract to use their vault shares or this call will revert.\n     * @param token Address of the ERC20 token to withdraw from vaults\n     * @param withdrawer Address to pull the vault shares from. SECURITY SENSITIVE.\n     * @param recipient Address to receive the withdrawn tokens\n     * @param amount Maximum number of tokens to withdraw from all vaults; actual withdrawal may be less. If `WITHDRAW_EVERYTHING`, just withdraw everything.\n     * @param firstVaultId First vault id to pull from; 0 to start at the the beginning\n     * @param lastVaultId Last vault id to pull from; `MAX_VAULT_ID` to withdraw from all vaults\n     * @return withdrawn The number of tokens received by recipient.\n     */\n    function _withdraw(\n        IERC20 token,\n        address withdrawer,\n        address recipient,\n        uint256 amount,\n        uint256 firstVaultId,\n        uint256 lastVaultId\n    ) internal returns (uint256 withdrawn) {\n        require(firstVaultId <= lastVaultId);\n\n        uint256 _lastVaultId = lastVaultId;\n        if (_lastVaultId == MAX_VAULT_ID)\n            _lastVaultId = registry.numVaults(address(token)) - 1;\n\n        for (\n            uint256 i = firstVaultId;\n            withdrawn + 1 < amount && i <= _lastVaultId;\n            i++\n        ) {\n            VaultAPI vault = registry.vaults(address(token), i);\n\n            uint256 availableShares = Math.min(\n                vault.balanceOf(withdrawer),\n                vault.maxAvailableShares()\n            );\n            // Restrict by the allowance that `withdrawer` has given to this contract\n            availableShares = Math.min(\n                availableShares,\n                vault.allowance(withdrawer, address(this))\n            );\n            if (availableShares == 0) continue;\n\n            uint256 maxShares;\n            if (amount != WITHDRAW_EVERYTHING) {\n                // Compute amount to withdraw fully to satisfy the request\n                uint256 estimatedShares = ((amount - withdrawn) *\n                    10**vault.decimals()) / vault.pricePerShare();\n\n                // Limit amount to withdraw to the maximum made available to this contract\n                // NOTE: Avoid corner case where `estimatedShares` isn't precise enough\n                // NOTE: If `0 < estimatedShares < 1` but `availableShares > 1`, this will withdraw more than necessary\n                maxShares = Math.min(availableShares, estimatedShares);\n            } else {\n                maxShares = availableShares;\n            }\n\n            uint256 beforeBal = vault.balanceOf(address(this));\n\n            SafeERC20.safeTransferFrom(\n                vault,\n                withdrawer,\n                address(this),\n                maxShares\n            );\n\n            withdrawn += vault.withdraw(maxShares, recipient);\n\n            uint256 afterWithdrawBal = vault.balanceOf(address(this));\n            if (afterWithdrawBal > beforeBal) {\n                SafeERC20.safeTransfer(\n                    vault,\n                    withdrawer,\n                    afterWithdrawBal - beforeBal\n                );\n            }\n        }\n    }\n\n    /**\n     * @notice Called to migrate all of the caller's shares to the latest vault.\n     * @dev The caller must approve this contract to use their vault shares or this call will revert.\n     * @param token Address of the ERC20 token to migrate the vaults of\n     * @return The number of tokens migrated.\n     */\n    function migrate(address token) external returns (uint256) {\n        return\n            _migrate(\n                IERC20(token),\n                _msgSender(),\n                MIGRATE_EVERYTHING,\n                0,\n                MAX_VAULT_ID\n            );\n    }\n\n    /**\n     * @notice Called to migrate the caller's shares to the latest vault.\n     * @dev The caller must approve this contract to use their vault shares or this call will revert.\n     * @param token Address of the ERC20 token to migrate the vaults of\n     * @param amount Maximum number of tokens to migrate from all vaults; actual migration may be less. If `MIGRATE_EVERYTHING`, just migrate everything.\n     * @return The number of tokens migrated.\n     */\n    function migrate(address token, uint256 amount) external returns (uint256) {\n        return _migrate(IERC20(token), _msgSender(), amount, 0, MAX_VAULT_ID);\n    }\n\n    /**\n     * @notice Called to migrate the caller's shares to the latest vault.\n     * @dev The caller must approve this contract to use their vault shares or this call will revert.\n     * @param token Address of the ERC20 token to migrate the vaults of\n     * @param amount Maximum number of tokens to migrate from all vaults; actual migration may be less. If `MIGRATE_EVERYTHING`, just migrate everything.\n     * @param firstVaultId First vault id to migrate from; 0 to start at the the beginning\n     * @param lastVaultId Last vault id to migrate from; `MAX_VAULT_ID` to migrate from all vaults\n     * @return The number of tokens migrated.\n     */\n    function migrate(\n        address token,\n        uint256 amount,\n        uint256 firstVaultId,\n        uint256 lastVaultId\n    ) external returns (uint256) {\n        return\n            _migrate(\n                IERC20(token),\n                _msgSender(),\n                amount,\n                firstVaultId,\n                lastVaultId\n            );\n    }\n\n    /**\n     * @notice Called to migrate migrator's shares to the latest vault.\n     * @dev Migrator must approve this contract to use their vault shares or this call will revert.\n     * @param token Address of the ERC20 token to migrate the vaults of\n     * @param migrator Address to migrate the shares of. SECURITY SENSITIVE.\n     * @param amount Maximum number of tokens to migrate from all vaults; actual migration may be less. If `MIGRATE_EVERYTHING`, just migrate everything.\n     * @param firstVaultId First vault id to migrate from; 0 to start at the the beginning\n     * @param lastVaultId Last vault id to migrate from; `MAX_VAULT_ID` to migrate from all vaults\n     * @return migrated The number of tokens migrated.\n     */\n    function _migrate(\n        IERC20 token,\n        address migrator,\n        uint256 amount,\n        uint256 firstVaultId,\n        uint256 lastVaultId\n    ) internal returns (uint256 migrated) {\n        uint256 latestVaultId = registry.numVaults(address(token)) - 1;\n        if (amount == 0 || latestVaultId == 0) return 0; // Nothing to migrate, or nowhere to go (not a failure)\n\n        VaultAPI _latestVault = registry.vaults(address(token), latestVaultId);\n        uint256 _amount = Math.min(\n            amount,\n            _latestVault.depositLimit() - _latestVault.totalAssets()\n        );\n\n        uint256 beforeWithdrawBal = token.balanceOf(address(this));\n        _withdraw(\n            token,\n            migrator,\n            address(this),\n            _amount,\n            firstVaultId,\n            Math.min(lastVaultId, latestVaultId - 1)\n        );\n        uint256 afterWithdrawBal = token.balanceOf(address(this));\n        require(afterWithdrawBal > beforeWithdrawBal, \"withdraw failed\");\n\n        _deposit(\n            token,\n            address(this),\n            migrator,\n            afterWithdrawBal - beforeWithdrawBal,\n            latestVaultId\n        );\n        uint256 afterDepositBal = token.balanceOf(address(this));\n        require(afterWithdrawBal > afterDepositBal, \"deposit failed\");\n        migrated = afterWithdrawBal - afterDepositBal;\n\n        if (afterWithdrawBal - beforeWithdrawBal > migrated) {\n            SafeERC20.safeTransfer(\n                token,\n                migrator,\n                afterDepositBal - beforeWithdrawBal\n            );\n        }\n    }\n}\n",
  "sourcePath": "contracts/ShapeShiftDAORouter.sol",
  "type": "contract"
}